:040000006F204065C8
:100004000000000000000000900000206E070020A7
:10001400A9BDF9F528080020000000000000000038
:1000240028080020900000200000000000000000CC
:10003400900000200000000090000020000000005C
:1000440090000020900000205E130020900000200B
:100054009000002080250020900000200000000077
:1000640090000020900000209000002090000020CC
:100074008E08002090000020A4080020900000209A
:1000840090000020900000209000002090000020AC
:1000940001A04111814601468145114506C6EF1074
:1000A400A039B727004011472383E780B7F700E062
:1000B400938707D0984B6D9B98CB984B5D9B98CBBF
:1000C4007300501001000100B2404101828001110F
:1000D400814601468145114506CEEF10E035B7272C
:1000E400004011472383E780B717004083C6E70227
:1000F40003C5E7041307800893F6C60F136535009C
:1001040093E61600733607801376860832C0010022
:100114000100930570052380B704130680FA238039
:10012400C704010001002382070223800704024858
:100134007328088001000100733807801378880849
:1001440042C2010001002380B7042380C7040100D8
:1001540001002387D7022387A7042380070492463C
:10016400F3A6068001000100F336078093F68608A3
:1001740036C4010001002380B7042380C7040100B2
:10018400010083C6B70493E60602A385D70423803F
:100194000704A246F3A6068001000100B7F600E0BA
:1001A400938606D0884A1365450088CA884A5D99B3
:1001B40088CA730050100100010073370780137759
:1001C40087083AC6010001002380B7042380C704CE
:1001D4000100010003C7B7041377F70DA385E704F3
:1001E40023800704B247F3A7078001000100F2400F
:1001F400056182803971B7F5070022DC81462A84C3
:100204003010E105194506DE02D423160102EF1071
:10021400A022B717004083C6E70203C5E70413070B
:10022400800893F6C60F1365350093E616007336FF
:1002340007801376860832C6010001009305700515
:100244002380B704130680FA2380C7040100010049
:1002540023820702238007043248732808800100A0
:100264000100733807801378880842C80100010030
:100274002380B7042380C704010001002387D70229
:100284002387A70423800704C246F3A6068001003F
:100294000100F336078093F6860836CA0100010090
:1002A4002380B7042380C7040100010083D607021A
:1002B40071757D15E98E2390D70223800704D246F9
:1002C400F3A606800100010037F500E0832605D17E
:1002D40093E646002328D5D083D607026575110519
:1002E40093F60660C18EC98EC206C182733507803B
:1002F400137585082ACC010001002380B7042380EC
:10030400C7040100010003C5F70013650504A387B2
:10031400A7002390D70223800704E246F3A60680B1
:10032400010001009166758C1DE87337078013770F
:1003340087083ACE010001002380B7042380C70454
:100344000100010003C7B70413670702A385E7048C
:1003540023800704F247F3A707800100010037F761
:1003640000E0832707D1DD9B2328F7D073005010CA
:100374000100010013078008F337078093F787080B
:100384003ED001000100B71700401305700523801B
:10039400A704930580FA2380B7040100010083D6E3
:1003A400070271767D16F18E2390D702238007040D
:1003B4008256F3A60680010001000DEC7337078016
:1003C400137787083AD2010001002380A704238011
:1003D400B7040100010003C7B7041377F70DA38521
:1003E400E704238007049257F3A707800100010064
:1003F4005145FD2EF250625421618280397152D4EC
:1004040081462A8A01468145114522DC26DA06DE28
:100414004AD84ED637140040EF1000028347E40256
:100424000347E4049304800893F7C70F1367370066
:1004340093E71700F3B6048093F6860836C60100E6
:1004440001009309700523003405130980FA230081
:100454002405010001002302040223000404B2461F
:10046400F3A6068001000100F3B6048093F6860823
:1004740036C80100010023003405230024050100CF
:1004840001002307F4022307E40423000404C24701
:10049400F3A707800100010013055002D928B7F71C
:1004A40000E0938707D0984B1367470098CB73B746
:1004B4000480137787083ACA010001002300340539
:1004C40023002405010001000347F4001367070417
:1004D400A307E400230004045247732707800100A4
:1004E400010073B70480137787083ACC0100010038
:1004F4002300340523002405010001002167336A29
:10050400EA0023104403230004046247732707808E
:1005140001000100984B5D9B98CB730050100100C3
:1005240001008146014681451145EF00F070F3B4A6
:10053400048093F4840826CE0100010023003405CE
:1005440023002405010001008347640493E7170096
:100554002303F40423000404F247F3A707800100F3
:100564000100F2506254D2544259B259225A2161C4
:100574008280011113078008F337078093F78708F7
:100584003EC201000100B7170040930570052380A7
:10059400B704130680FA2380C7040100010083C650
:1005A400B70493F6F60DA385D70423800704924677
:1005B400F3A606800100010093760502D5CEF3363A
:1005C400078093F6860836C4010001002380B7042F
:1005D4002380C70401000100B70614007D89558DEE
:1005E40088C7010001000100010023800704A2461E
:1005F400F3A606800100010073370780137787088C
:100604003AC6010001002380B7042380C704010017
:100614000100010001003727004093061005A303E1
:10062400D78023800704B247F3A7078001000100A5
:1006340093078008F3B7078093F787083ECE01003D
:100644000100B7170040130770052380E704130760
:1006540080FA2380E7040100010003C7B70413678D
:100664000708A385E70423800704F247F3A707805C
:10067400010001000561828093760504BDC6F3364E
:10068400078093F6860836C8010001002380B7046A
:100694002380C70401000100B706140093860604F2
:1006A4007D89558D88C70100010001000100238068
:1006B4000704C246F3A606800100010073370780D1
:1006C400137787083ACA010001002380B704238006
:1006D400C704010001003727004093062005A30347
:1006E400D78023800704D24781B7733707801377F5
:1006F40087083ACC010001002380B7042380C70493
:100704000100010098471367070C98C7238007046A
:10071400E24719BF0111814601468145114506CEC4
:10072400EF00905193078008F3B7078093F7870889
:100734003EC601000100B71700401307700523806F
:10074400E704130780FA2380E7040100010003C7CC
:100754006704136717002383E70423800704B24761
:10076400F3A7078001000100F24005618280411176
:100774008146014681451145EF00104C130780085E
:10078400F337078093F787083EC401000100B717C9
:100794000040130670052380C704930680FA238063
:1007A400D70401000100FD552396B70223800704F6
:1007B400A245F3A505800100010073370780137774
:1007C40087083AC6010001002380C7042380D704A8
:1007D4000100010003C76704136717002383E704BC
:1007E40023800704B247F3A707800100010001A09A
:1007F400BD473305F50201007D1575FD8280411169
:1008040022C426C206C6AA84014463179400B240D7
:10081400224492444101828005041305803E42042F
:10082400C13F4180DDB700009305000273A04580FD
:1008340082457390153492402242B2424243D243DD
:100844006244F244025592552256B2564257D25748
:100854006258F25806499649264AB64A464BD64B40
:10086400664CF64C065D965D265EB65E465FD65FC8
:100874000961730020304111B7170040985F3AC6F0
:10088400945F3247E39CE6FE324541018280B7170C
:100894000040130700032388E702854723A0F1885B
:1008A40073002030411122C626C44AC2972000E0BA
:1008B400E7804057C167E98F2A8493740540638FAA
:1008C40007269377150099C703C51189972000E07F
:1008D400E780603BB70704003377F400630907102F
:1008E40093876708E18F95CB83C7E18803C7D188D5
:1008F4009386E18863F2E70A03C7060093071700AB
:1009040093F7F70F2380F6009387C19BBA9703C52B
:100914000700972000E0E78000379DC037050010EE
:1009240013050540972000E0E78020518D4723847C
:10093400F188054523890188972000E0E780802E0F
:100944009377041099CF13050010972000E0E780F7
:10095400C04E0545972000E0E780C02C95472384CE
:10096400F1889377042091CB13050020972000E0B1
:10097400E780A04C91472384F18805651305058021
:10098400B377A40063820722972000E0E780E04A5F
:1009940099472384F18809AC83C7018989CB05452C
:1009A40023890188972000E0E780C027BDB78547E9
:1009B400814513050040A387F188972000E0E78074
:1009C400A02A814513050020972000E0E780C02974
:1009D400814513050010972000E0E780E0280545D5
:1009E400972000E0E780E021238901883DB79377D1
:1009F400240089CB83C7D188E1C30545972000E053
:100A0400E7806024937704049DCB03C9E1889307AE
:100A140019002387F188972000E0E78060279387F7
:100A2400C19BCA972380A70003C7D18883C7E188E5
:100A340063FDE7080545972000E0E780C020E381D7
:100A440004F03705001013050540972000E0E78007
:100A5400C03E83C4E188938714002387F1889720DC
:100A640000E0E780E0229387C19BA6972380A7003C
:100A740083C70189E39F07EA854781451305004041
:100A8400A387F188972000E0E780001E81451305C5
:100A94000020972000E0E780201D81451305001009
:100AA400972000E0E780401C0545972000E0E780A0
:100AB40040152389018869B50145972000E0E78046
:100AC40080188547A384F18835BF0145972000E04D
:100AD400E78060179387918803C7070021CFA38419
:100AE400018883C7018989CB0545972000E0E78009
:100AF400601323890188A1B7854781451305004008
:100B0400A387F188972000E0E7800016814513054C
:100B14000020972000E0E780201581451305001090
:100B2400972000E0E78040140545972000E0E78027
:100B3400400DC1B705472380E70011B7937725001F
:100B440095CBB707040093870708E98F138721899A
:100B5400DDC391472300F70023860188A38501881C
:100B640083A7418881CB9C4391C79385B188138522
:100B7400C1998297B7070400E18FE1C70545972023
:100B840000E0E780400CB5CC3705001013050540A4
:100B9400972000E0E780602A0545972000E0E78081
:100BA400800A0144238901888567E18F89CB056523
:100BB400972000E0E78060289D472384F1889167AF
:100BC400E18F89CB1165972000E0E7800027A147DA
:100BD4002384F188A1677D8C09C82165972000E0F2
:100BE400E780A025A5472384F1883244A244124912
:100BF4004101730020308D472300F70023850188CD
:100C040095BF93774408E38D07D283C7C18803C790
:100C1400B1889386C1881305F00F63FFE70003C70B
:100C240006009307170093F7F70F2380F6009387C6
:100C3400C199BA9703C50700972000E0E780A00494
:100C440001B393770404A1C383C6A188FD47138726
:100C5400A188014563E5D7028347070013F9F70F1D
:100C6400850793F7F70F2300F700972000E0E7804C
:100C740020029387C197CA972380A7000545972030
:100C840000E0E78040FC937704018DC737570040AC
:100C94008357078093E717002310F78083A74188C1
:100CA40081CBDC4391C783C5A1881385C197829703
:100CB40023850188E38604C8370500101305054021
:100CC400972000E0E78060170545972000E0E78063
:100CD40080F7BDB1411122C426C21384518906C6CE
:100CE400972000E0E780A0AC834704000547938485
:100CF400418A850793F7F70F2300F4006398E70010
:100D0400972000E0E78080A12390A400834704009B
:100D14001307800CB3F7E70239472300F400B71731
:100D24000040238CE704972000E0E780E0AA839743
:100D34000400B24022443E959307A0413305F502D6
:100D440093070020924441013345F502FD779387D0
:100D5400273B3E95420541818280011113055004D1
:100D640006CE972000E0E780C06EF577938717A042
:100D74002316F1006C00C147054785460D4613054F
:100D840050042307F100972000E0E7802072F2402E
:100D940005618280011122CC2A841305500406CEF9
:100DA400A3050100972000E0E780A06A014785467B
:100DB40005469305B10013055004972000E0E78031
:100DC400E06E634F050213074006854609466C0032
:100DD40013055004972000E0E780A07A63420502DF
:100DE4000357C1000145931787002183D98F1397B7
:100DF40007014183D207D1833183B397E7001CC035
:100E0400F24062440561828079714AD02A8905459D
:100E140006D626D222D4AE844ECE52CC972000E001
:100E2400E780206381570547854605469305710091
:100E340013054004A303F100972000E0E780006756
:100E44000945753A13074006854619462C001305D3
:100E54004004972000E0E780C07299476314F510BE
:100E640083578100172400001304449313958700CB
:100E7400A1835D8D4205418197E001E0E780402E2A
:100E840097270000938707919043D44397D001E0BC
:100E9400E78000651040544097D001E0E780600986
:100EA40097270000938707909043D44397E001E08D
:100EB400E780A0B797F001E0E78040C08347C10016
:100EC4000347B100AA89A207D98F13958700A1838C
:100ED4005D8D4205418197E001E0E7806028972716
:100EE40000009387A78C9043D44397D001E0E78018
:100EF400205F1040544097D001E0E780800397279B
:100F040000009387278B9043D44397E001E0E78068
:100F1400C0B197F001E0E78060BA172A0000032A05
:100F2400EA89D2852A8497E001E0E780E06063499A
:100F3400A00293050000228597E001E0E780206984
:100F440063540500130400002320390180C00545C3
:100F5400B250225492540259F249624A4561828045
:100F64005284DDB70145EDB7B717004083A7470C9E
:100F74008280A20593170501D18D33E5F500DD8349
:100F840081C7B70700FF5D8D8280797152CC2A8AB0
:100F94001305700706D622D426D24AD04ECE56CA9E
:100FA4005AC8972000E0E780C04A9307801005479D
:100FB400854609462C00130570072314F100972079
:100FC40000E0E780A04E2A84634005201545EFF039
:100FD4001F8389470547854609462C00130570077A
:100FE4002305F100972000E0E780404C2A84634DFC
:100FF400051C1545EFF0BF808D4701478546054622
:1010040093056100130570072303F100972000E0A6
:10101400E780C0492A846349051A130740068546B8
:101024000D466C0013057007972000E0E7806055BB
:101034002A84634B051801478546054693057100CC
:10104400130570070349C1008349D100834AE100B5
:10105400A3030100972000E0E78040452A8463450C
:1010640005161307400685460D466C0013057007E8
:10107400972000E0E780E0502A8463470514034684
:10108400E1008345D1000345C100E5355686CE8590
:10109400AA844A85F93D97F001E0E78060959715A9
:1010A400000083A5E57197E001E0E780C05BAA89B1
:1010B400268597F001E0E780A0939715000083A5AB
:1010C40025701389019F97E001E0E780C059AA8445
:1010D4000325C90097F001E0E7808091A68597E099
:1010E40001E0E7804058AA8A0325890097F001E0CF
:1010F400E7800090AA85568597E001E0E780400DDF
:10110400A68597E001E0E7800056AA8A03254900F6
:1011140097F001E0E780C08DAA85568597E001E04D
:10112400E780000BA68597E001E0E780C053AA8A18
:101134000325090097F001E0E780808BAA85568596
:1011440097E001E0E780C008AA8A0325090197F027
:1011540001E0E780E089CE8597E001E0E780A050D8
:10116400AA85568597E001E0E7808006AA8A0325D0
:10117400890197F001E0E780A087A68597E001E068
:10118400E780604E2A8B0325490197F001E0E78050
:101194002086AA855A8597E001E0E78060032A89C2
:1011A400A6854E8597E001E0E780E04BAA854A8555
:1011B40097E001E0E780204BAA85568597E001E09F
:1011C400E78000012320AA00B250228522549254C1
:1011D4000259F249624AD24A424B45618280011166
:1011E4002306A100A306B10005476C008546094605
:1011F400654506CE972000E0E780402BF24005616C
:101204008280011122CC06CE13047002014781466C
:1012140005464C00654523028100972000E0E780E5
:10122400E0281307400685460546930531006545C9
:10123400972000E0E780E03483473100858BF9D7BD
:10124400930780FA0147854605464C00654523020D
:10125400F100972000E0E7806025130740068546EB
:1012640019462C006545972000E0E780803103157E
:10127400C100118597E001E0E780807797150000B1
:1012840083A5455497E001E0E780E03D9715000011
:1012940083A585532A8497E001E0E780E029854708
:1012A400634DA0009715000083A54552228597E061
:1012B40001E0E780C0319357F541F240624423AC2A
:1012C400F18805618280011106CE22CC2134972059
:1012D40000E0E780803F171400001304A43783A7BD
:1012E400018A13D78700A304A400A305F4002C00EB
:1012F400C18348002306E400A306F40031361245F6
:101304009715000083A5C54C97E001E0E780A03560
:1013140097E001E0E780A06242054185A307A400AD
:1013240021852308A400224597E001E0E780206797
:101334002309A40068009139324597E001E0E78071
:101344000060231AA4004185230BA400F2406244E8
:1013540005618280411106C6EF00C079F5BF3717D9
:1013640000408357E7098566F58F99C78547A38EA3
:10137400F1888567231FF708730020302303048056
:1013840015472303E48001002302A480828083079D
:101394006480E3CE07FE2303048082808307648095
:1013A400E3CE07FE03454480828083076480E3CE56
:1013B40007FE2302A4808280411126C44AC24EC083
:1013C40006C61377F50BAD47AA892E8995446306A3
:1013D400F70019456537653F8D444E854537FD59FE
:1013E400FD1463983401B240A24412498249410178
:1013F4008280135509011375F50F453F2209CDB7B6
:10140400011126CC06CEB704080051371545BD3767
:10141400713769372AC6A53F32459377150089EBA2
:10142400136515001375F50FF240E24405618280DF
:10143400FD14E9FC0145CDBF397126DC4ADA4ED8EA
:1014440052D656D45AD25ED006DE62CE66CCB7E708
:1014540000E07D5783AA070022C603AA470023A001
:10146400E71823A2E718B717004013077005238075
:10147400E704130780FA2380E70483C74704930B28
:1014840075FFB684E20793FBFB0F8546AA892E8B72
:10149400328937240040E187015763FA76016308F3
:1014A400D5008946130700026313D5000157D98F6D
:1014B40093F7F70FB71C00402382FC041147230362
:1014C400E4801305F00F5D3D094CD135636D7C114B
:1014D400B7050700DA9537870700795563F2E50405
:1014E400B3879500636EF702370B0800A94733EB07
:1014F40065016399F90689E48144513D26850DA06F
:10150400DA850945553D05090345F9FFFD14050B29
:10151400693D81C49377FB0FFDF7DD3569FD7D558A
:10152400B7170040130770052380E704130780FAF8
:101534002380E70403C74704418B2382E704F25066
:10154400B7E700E023A0571123A24711E254324425
:101554005259C259325AA25A125B825B724CE24C03
:1015640021618280A5476395F90685691309F00F07
:10157400B3069900B3742B01B6941349F9FFB374FD
:101584009900856B33796901416B9387F9FFB3F750
:10159400270199E363FC340193D94900C147E3E689
:1015A40037FF99BF0569C1697D19D9B71305800D46
:1015B4006388690113050002638479011305100827
:1015C400CA85DD3B353D21DD4E99B3843441D9B71D
:1015D400DA852D45D533CA94E30099F205097D3B9C
:1015E400A30FA9FED5BF9387F9FF93F7F70F6361A4
:1015F400FC0C83C71C0413073008631FF704370768
:101604000800636BEB04B3079B00B706100063F597
:10161400D704334BEB0089476393F9068980D54996
:10162400E38C04ECDA850945413B11090327C9FF22
:1016340091472320E48003076480E34E07FE2303DD
:101644003481FD17EDFBFD14110B81C49377FB0F5F
:10165400E9FF7D3371F5E1B5B717004003C75704BF
:10166400B70708001377070219E3B787070079550E
:10167400E378FBEA33079B00E3FFE7F855B58547BA
:10168400E382F9F2DA852D45053B9389F4FFE3857E
:1016940004E6293393F7390091EB8326048003276A
:1016A400090093074900E39AE6E43E89CE84F1BF3A
:1016B400B5476396F9001305900BC93135BDB147A1
:1016C4001305B00AE38BF9FE99476391F904B70552
:1016D4000800B365BB002D45C53181448D4BA1493C
:1016E400753963967401832704802320F9008504E7
:1016F400E39834FF8327048013172B0163550700F5
:101704002312F900D5BB2322F900FDB39D47639949
:10171400F90281451305B0044531BD442320090075
:1017240023220900FD599D3993F77400CA9703C712
:101734000700FD14398D2380A700E39634FF6DBBA9
:10174400A1476392F9046D398144630D0B008D4701
:101754009304C0036308FB009304000563048B0136
:10176400930440041375C507E30895D81945393126
:1017740039390545213126850D3909453D31493130
:10178400E31C05D669BB91476399F900130560060C
:10179400F536F53E130590090DB7E38F09D4F154DE
:1017A400A9BBB7C7004003A7C72023A607200F1073
:1017B400000001C599C1814711E6B7C7004023A6BF
:1017C400E7208280B386F50003C80600B306F5005F
:1017D400850723800601E317F6FEC5B737C7004027
:1017E4008327C720232607200F10000019C191C1A9
:1017F40011E637C700402326F7208280910503A70E
:10180400C5FF11057D16232EE5FEDDB737C7004061
:101814008327C720232607200F10000001C53307A4
:10182400C50011E637C700402326F720828005054E
:10183400A30FB5FEE31DE5FEF5B7B7C7004083A6C9
:10184400C72023A607200F10000081473307F500A7
:101854000307070019E737C700402326D7203E8532
:1018640082808507E5B7011126CA4AC8B7C7004078
:1018740006CE22CC83A4C7202A892E8623A607203D
:101884000F100000131506019305F004418132C6C0
:10189400EF0090222A8401C53246CA851937228571
:1018A400F2406244B7C7004023A697204249D2447D
:1018B40005618280B7C7004003A7C72023A607207D
:1018C4000F10000001C599C1814711EAB7C7004054
:1018D40023A6E720054582808507E309F6FE330841
:1018E400F500B386F5000348080083C60600E30547
:1018F400D8FEB7C7004023A6E72001458280B7C7BA
:10190400004003A7C72023A607200F100000930759
:10191400F6FFBE952A966317C500B7C7004023A6F5
:10192400E7208280FD1583C715000505A30FF5FE8A
:10193400DDB737C700408327C720232607200F10B1
:10194400000001C53307C50019E637C70040232648
:10195400F7200145828005058346F5FFE397B6FE2F
:10196400E31BE5FE37C700402326F72005458280A8
:101974007971973700009387E78822D4804306D68D
:1019840026D24AD04ECE52CC56CA5AC85EC679C068
:10199400B7C4C901014B9739000093892986938400
:1019A400F437173A0000130A2A86973A0000938AFC
:1019B400AA80173900001309A9898357240095E3E5
:1019C4005C44631D0B0017370000232DF782832B23
:1019D400C4002285EF00301D5E84B9A82326FB00D5
:1019E400FDB783A7090082971C443307F54063764B
:1019F400F500032749001D8F2A9763E2E40897271F
:101A0400000023A3077C835524000345040097208A
:101A140000E0E780E05C5C405844A1CB0C44032622
:101A24004900AE97BE8663E4B70063E4C700B3869B
:101A3400C74014C4228B3A8449F097270000938747
:101A4400A7779C4B05476372F706FD17172700001D
:101A5400232CF776B250225492540259F249624A26
:101A6400D24A424BB24B4561828063170B009727E1
:101A7400000023A9E778A1BF2326EB0089BF032731
:101A84004A0209CF63EFA7003385A74083A70A0161
:101A94006376F5009727000023A8A772228B4044A1
:101AA40061BF03274900BA97C5B79727000023AD44
:101AB40007704DB797270000938707799C4385C328
:101AC400411106C682979727000083C7077389E7E9
:101AD4009727000023AA0776B24041018280972706
:101AE400000083C7877191E79727000023AE07742E
:101AF40082808280411122C4172400001304846E62
:101B04001C4006C626C24AC091C782979727000088
:101B140023AA076C5C4091C382971C40639C071CFA
:101B2400173700000347B78C954797340000938418
:101B3400A48B6301F71C9727000083C727728DE3EA
:101B440083C75400858B89CF83C774001947631CEE
:101B5400F70E97370000A38B078899265C44829779
:101B64001C4491C38297172900001309696903274C
:101B7400090017260000034636649727000083C730
:101B8400A76393961700BA9683D60600E9CA9727E7
:101B9400000083C7676263EEC70C97270000238D9C
:101BA40007601C406398071483C7740015476303D8
:101BB400F7149737000083C7B78391CF83C77400A6
:101BC40093F7F70F89EB97370000A38307829710E9
:101BD40001E0E780A0AD97270000938727629C432C
:101BE400638A07109727000093878766DC431727CB
:101BF4000000232BF75CAD3B972700009387C76059
:101C0400DC53EDCB83C7740015476365F70E973734
:101C1400000083C72782918BF1EF9727000083C7C9
:101C2400C75DE9EB032609009726000083C6D65852
:101C340063C8D70C2244B24092440249410117338D
:101C440000E06700439083C774001D47E31AF7F070
:101C540097270000A38C0778A1241C4809B785079F
:101C640093F7F70F972600002388F654E3E7C7F0AD
:101C740039BF86073E97835507002310070097272F
:101C84000000239B075697270000938767559C43C2
:101C9400172500000345455213172500BA979C43A6
:101CA40082979727000083D72755172700000347FB
:101CB400A75093C7F7FF7D8D9317170003270900DB
:101CC4003E97835707005D8D2310A70097270000D8
:101CD40083C7874E91C7850717270000230EF74C4B
:101CE400172700000347474D9727000083C7D74CA9
:101CF400E375F7EAB24022449244024941018280EA
:101D0400139717003297035707006DF785070DB730
:101D140037C700408326C720B707FCFFFD17F58FA0
:101D24002326F7200F100000972700009387C74849
:101D3400C84F832787262326D7206A0593C7F7FF32
:101D440099835D8D82800111972700009387077A1C
:101D540022CC03A4870B26CA06CE2AC42EC68544E9
:101D640019E40145F2406244D2440561828083470C
:101D7400910003471400858B6304F7000044CDB73A
:101D840019469305A100130524002D36E31895FE8A
:101D94000545C9BF172700001307476414434111C1
:101DA40022C49C5E4AC006C6998326C2858B3A84A7
:101DB4001729000013094962D1CB930700069CDE62
:101DC400172700000347A762930700089724000021
:101DD40093848461631BF700832709009C4393F772
:101DE4000704172700002304F76083C7040093F750
:101DF40007049DC397270000938747409C4382971D
:101E04009727000023AAA75E83C7040093F7F70B64
:101E140017270000230AF75C83C7440093F70704DD
:101E240095E7854717270000A302F75C9727000072
:101E34009387475D9C433707020098C7130700FC4C
:101E4400972600002384E65AD844F8D318401C5F30
:101E54009183858B8DC31C5F93E707011CDF972754
:101E640000009387275A9C4323A207068547172718
:101E74000000230DF75683270900D8430583058BFB
:101E840019C7D843759BD8C3D843799BD8C3B240EC
:101E940022449244024941018280ED3D7300203086
:101EA400972700009387075694439727000093874A
:101EB400A75303C70700058B11CB9727000023877F
:101EC400075297270000A3830752828003C7170095
:101ED400058B65F7F85271FF83C75700DDB71727E5
:101EE40000001307A74F032807008327880395835F
:101EF400858BADEF11C683270803BD832300F6004D
:101F04009DC61C43985B46079357670163560700B9
:101F140093E707C0C207C18303970600C207C187BE
:101F240009C7BA970947B3C7E7022390F6008DCDD6
:101F34008345150095C99727000083C7474B93F73E
:101F4400070413879500894585C33A95834705009F
:101F54000547994593F6F7066398E600E207E1879B
:101F6400814563D30700B9452E8582808545EDBF41
:101F7400411122C406C6172400001304A4481840C3
:101F840049E9AE877453FDFE3E85B285972700006C
:101F9400238D0744970001E0E7802058972700002D
:101FA4009387C7439C43B70680009843558F98C3D3
:101FB400D857719BD8D797270000A3890742972742
:101FC4000000A38307421C40094798C3B7F700E009
:101FD40003A707D16D9B23A8E7D003A707D15D9B77
:101FE40023A8E7D0730050101440172700001307EC
:101FF400A73F83472700858B89EB83473700858B71
:10200400C1C3972700002383073EB2402244410105
:1020140082808D476310F502972700009387073C61
:102024009C43B70680009843558F98C3D857719B3B
:10203400D8D75DBF8547E319F5FA54478177FD1773
:10204400F58F5CC70F1000001840B70702001CC7CB
:10205400930700F817260000230AF6389727000094
:102064009387C7379C439C439D83858B6397A700C5
:10207400930760197CD354C785BF9307E01BDDBF6A
:10208400FC52A5FB59B7411122C4172400001304C4
:1020940064371C4006C6D8479316D70063D6060299
:1020A40098479316D70063D106027D57B8D71727F0
:1020B400000013076710584F05079726000023AB4D
:1020C400E6103707040098C798470D83058B1DC396
:1020D400172700000347673113671700972600008E
:1020E4002385E630130700F8972600002380E630A6
:1020F400214798C79847058B09CF17270000034746
:10210400B72E1367170097260000A38FE62C054708
:1021140098C798470983058B09E798470583058B7A
:1021240031C317270000A303072C98479726000004
:102134009386862B0983058B6302071003C7060069
:1021440013671700972600002380E62A114798C7D3
:1021540017270000130787281443D856719B136769
:102164001700D8D698479316F70063D60602972629
:10217400000083C6E63EC18A17270000130707370D
:10218400E1CA03474707136707029726000023891C
:10219400E63C416798C798479316E70063D2060266
:1021A40017270000034787246207618763570700E6
:1021B400054797260000238BE6223707020098C7BD
:1021C40098479316C70063D706029726000083C674
:1021D4003639858A1727000013074731C1CA0347D8
:1021E40057071367270097260000A38BE6363707A7
:1021F400080098C798479316B70063DD06023707AF
:10220400100098C79727000083C7470585C717277D
:1022140000000347D71D9547630EF700972700007A
:102224009387071B9C4391C382971840B7071F00ED
:10223400BD075CC7B24022444101828003C7360017
:102244001367170097260000A381E61A094701B710
:10225400834647070946BD8A6388C6000347470784
:102264008D463D8BE317D7F2114705B783465707D1
:10227400918AB5DE0347570713678700ADB79727E1
:1022840000009387271898438967938707F47CD3C2
:10229400972700009387471C9C4383A6070913963E
:1022A40056006358060083A6070913966600634424
:1022B40006007453FDF28280411122C4B7C7004066
:1022C40006C603A4C72023A607200F10000011C1CF
:1022D40099E5B7C7004023A6872001457DA8930749
:1022E4003500C207C183F19BC207C18313074003B2
:1022F4006369F702172700001307C71E084317274F
:1023040000001307A71D14436392A60217270000B9
:10231400130787EF185B55DFC207DD8D054502976C
:102324004DBF172700001307A71BC9BF035765003C
:102334002DEB035745006366F706B306F7402146C5
:10234400637CD60203280500938687001D8FAA9616
:10235400611717260000035686E62392E60023A0A1
:1023640006012393060014C12312F500130786FF08
:10237400972600002395E6E42313B5009725000073
:1023840083D5E5E3B387F540172700002319F7E267
:10239400B7C7004023A687202105B240224441014B
:1023A4008280084195B7B7C7004003A8C72023A679
:1023B40007200F10000001E523A60721828097273C
:1023C40000009387271203AE070097270000938726
:1023D400E71003A307008146F28763F0670C83A824
:1023E4000700636FF50A63EDA80A13878700636625
:1023F400E50A03D66700216705076317E60003C7EC
:10240400C1910507238EE190972500009385C5DAD5
:1024140003D6470003D7650023930700329742078A
:10242400418317250000231CE5D8638AC7031725B9
:1024340000001305E50A08416303F50203D56600AD
:1024440019ED83D7460023A0160121073E962106E5
:102454002392C600972700002393E7D6B6879843B4
:10246400630D6702972600009386860794426306ED
:10247400D7028356670095E283D647000356470088
:102484001843A106B2962392D70098C383D7650058
:10249400A107172700002314F7D2B7C7004029BFAC
:1024A400BE86C6871DBF01119727000093870704C6
:1024B40022CC03A4070C26CA4AC84EC606CEAA8458
:1024C40013092500854915C083C714000347340048
:1024D400858B6304F700405CFDB7194693054400FF
:1024E4004A85EFF02FBDE31835FF2285F2406244A0
:1024F400D2444249B24905618280411197270000C4
:102504009387C7FE22C403A4070C26C24AC006C68A
:1025140093042500054901E82285B24022449244EF
:10252400024941018280A6851305A40297B001E007
:10253400E7800018E30225FF405CF1BF41119727B3
:1025440000009387A7FA22C403A4070C26C24AC03A
:1025540006C693042500054901E82285B2402244B9
:102564009244024941018280A6851305A40197B0D3
:1025740001E0E780E013E30225FF405CF1BF0000C7
:10258400197106C212C416C61AC81ECA22CC26CE97
:102594002AD02ED232D436D63AD83EDA42DC46DEBF
:1025A400CAC0CEC2D2C4D6C6DAC8DECAE2CCE6CE2F
:1025B400EAD0EED2F2D4F6D6FAD8FEDA9385818741
:1025C4008841E700050092402242B2424243D2438E
:1025D4006244F244025592552256B2564257D2579B
:1025E4006258F25806499649264AB64A464BD64B93
:1025F400664CF64C065D965D265EB65E465FD65F1B
:102604000961730020300000EFF0CFCA73000000AE
:102614000000000097220000938222BE0383020080
:1026240023800200630F0300F32510342EC09705A6
:1026340000009385A5FD73901534EFF0DFA47300BB
:10264400203086DCEFF03FA4E650828000000000DA
:102654009711002093814190174100201301411AE2
:102664001305400097E5FF1F938585991706002001
:10267400130606FE63FAC5008322050023A0550055
:1026840011059105E3EAC5FE17E50100130585CFA1
:10269400970500209385C5FB1386818763FAC500DF
:1026A4008322050023A0550011059105E3EAC5FE28
:1026B4001385818797250020938585F56377B50079
:1026C400232005001105E36DB5FEFD42739002BCA5
:1026D4008D4273904280930280087390023097E297
:1026E400FF1F9382E29193E232007390523097126B
:1026F40000009382423E73901234730020302A8388
:1027040009CA83830500230073007D16050385052C
:102714006DFA8280B717004083C5870503C8970503
:1027240003C7970593F5F50F1378F80F1367870020
:10273400A38CE70403C797051377B70FA38CE704AB
:1027440003C7A70513671700238DE7043717004055
:102754008347A705858BEDFF0565C1463717004004
:102764009308F5FF0346A70513661600230DC70457
:102774000346A705058A6DFE0356C705FD16C20666
:102784001346F6FF33761601C182B297E1FEA10724
:102794009183130505801D8DA30C07054205230CA9
:1027A400B70441858280B717004003C777051377C4
:1027B400E70FA38BE7043947238CE7040D47A38C69
:1027C400E70403C7A7051377D70F238DE704828097
:1027D400371700408347A70593E71700230DF70435
:1027E4008347A705858BEDFF0355C7055205518126
:1027F4008280B717004003C7E7040D89411113779E
:10280400C70F498F93068008F3B6068093F68608AF
:1028140036C601000100930670052380D704930691
:1028240080FA2380D704010001002387E704238072
:102834000704B247F3A70780010001004101828029
:1028440041112A830148930E407E130F0019930F00
:1028540040069318030193D8080163EF1E01130384
:102864000019337365028542FD4363F0B20A8D4F4C
:10287400214F930E400689A87D13336EE30393081A
:10288400E016630E0E00336EF3039308D01663084C
:102894000E009378330093B818009388D816C29822
:1028A40013980801135808016DB793F81500138E97
:1028B400F5FF6371BF04F908C298139808019315D2
:1028C4000E0113580801C181E391F5FF8545630B9F
:1028D4000300B378D50381456386080093753500FA
:1028E40093B51500F105C295139805011358080115
:1028F4008945D9BFB3881341C29813980801931529
:102904000E0113580801C1818DB77D16329879469E
:102914003307C70213D61700BE074208135808012D
:1029240032976146B3F6C60213068070B386C602B8
:102934003697A166F58F4207D98FB716004003C7B3
:10294400F60213770708A303E1000346710003C7E7
:10295400F60213770708E314E6FE03477100B7167F
:1029640000405DCF1307800873370780137787080B
:102974003AC4010001003717004093067005230094
:10298400D704930680FA2300D70401000100232A08
:1029940007038346170393E60608A308D702230018
:1029A40007042247732707800100010011663717C7
:1029B40000407D16545B4C5FAD8EF18EE5FE9306B0
:1029C4008008F3B6068093F6860836C60100010037
:1029D400930670052300D704930680FA2300D704D6
:1029E400010001005CDB8347170393E70704A30896
:1029F400F70223000704B247F3A707800100010090
:102A04004101828003C7F60213770708A303E1009C
:102A14000346710003C7F60213770708E314E6FEC2
:102A24000347710065D33DBF4111B7170040985F5C
:102A34003AC6945F3247E39CE6FE32454101828008
:102A4400914763EAB70897D701009387A7248A05BB
:102A5400BE9598413E97B71700409387470B02876E
:102A640094431345F5FF37170040E98E94C393064A
:102A7400070B9C42E98F9CC29307070A9843798D00
:102A840088C3828090439346F5FF37170040758EC4
:102A940090C31306070B1C42C98F1CC29307070A75
:102AA4009843F98E94C38280944337170040C98EAB
:102AB40094C39306070B9C421345F5FF65BF9443EB
:102AC4001347F5FF758F98C3B71700409387070A1C
:102AD4009843498F98C382809843498FEDB79147B3
:102AE40063EAB70897D701009387071C8A05BE9548
:102AF40098413E97B71700409387470D0287944348
:102B04001345F5FF37170040E98E94C39306070D6C
:102B14009C42E98F9CC29307070C9843798D88C324
:102B2400828090439346F5FF37170040758E90C31B
:102B34001306070D1C42C98F1CC29307070C984348
:102B4400F98E94C38280944337170040C98E94C38E
:102B54009306070D9C421345F5FF65BF9443134745
:102B6400F5FF758F98C3B71700409387070C9843F8
:102B7400498F98C382809843498FEDB79357E500F6
:102B840093F70730C98FC2070947C183638BE504F4
:102B94006362B70213C6F7FF9DE9371700408356F7
:102BA4006709F18E231BD7081307C70C1443C98E7A
:102BB40014C321A00D47638CE50237170040231F7F
:102BC400F70883562709D58F2319F708828037170A
:102BD400004083566709F18E231BD7081307870C1F
:102BE400F1B73717004083566709DD8E65BF371785
:102BF400004083566709DD8EC5B7375700408357B9
:102C0400078011C593E707102310F7808280C2075D
:102C1400C18393F7F7EFC207C183FDB7375700406D
:102C24008357078011C593E707202310F78082801C
:102C3400C207C18393F7F7DFC207C183FDB73757D4
:102C440000408357078011C593E707402310F7809E
:102C54008280C207C18393F7F7BFC207C183FDB760
:102C640037570040835747804205418189C5C98F42
:102C74002312F78082801345F5FFE98FD5BFB7573C
:102C840000402398A7808280B757004003D507816E
:102C94001375F50F8280375700408357078011C59D
:102CA400A166D58F2310F7808280C607C583DDBF58
:102CB400011126CAB754004052C43E8A83D7048007
:102CC4004EC6BA892167D98F06CE22CC4AC856C2CD
:102CD4005AC02390F4802A8901452E84328BB68A07
:102CE4005D3FB52E37480F001308082433580503F9
:102CF40083D74480C207C18393F707FCC207C1830B
:102D04002392F48083D74480B3E70701C207C183C9
:102D14002392F48083D70480C207C183F99BC2073E
:102D2400C1832390F480E1679387076A63E4870A89
:102D340006043354850285671387C7FF114642048E
:102D44004180618F01C7FD173376F40005089307AE
:102D5400F00363F407011308F0034208B757004077
:102D64001358080123900783B7550040239EC5805C
:102D740083D70580F240624493E717002390F580DF
:102D840083D70580D244024BC207C18393F757BF50
:102D9400C207C1832390F58003D5058033655501AF
:102DA40033652501420541812390A58083D7858021
:102DB4002394058083D685804249924AB3E746012D
:102DC40033E73701420741832394E580B249224A1D
:102DD40005618280631A0B028D45B305B402B355B5
:102DE400B502D205D1812E8691E105464206418283
:102DF400A1675D8E9307C0123308F8029307803EE3
:102E04003358F802050891BFE5473304F40291678B
:102E140033568502520651825D8ED9BFB7570040A2
:102E240003D7478103D587814205598D2205218126
:102E340082801345F5FF42054181B7570040239A2C
:102E4400A7808280797122D43714004026D24AD0D8
:102E5400035924028354040206D64209C2044ECE06
:102E640052CC56CA13590901C1802DE11379F9F7DF
:102E740093F4F49F4209C20413590901C1809307D2
:102E84008008F3B7078093F787083EC40100010068
:102E9400930770052300F404930780FA2300F404D5
:102EA40001000100231124032310940223000404CD
:102EB400A247F3A7078001000100B25022549254A4
:102EC4000259F249624AD24A45618280B7F5070045
:102ED40081463000B105194597E0FF1FE780C055D2
:102EE40022478967F98FF1FB1369090893E40440C9
:102EF40093098008F3B7098093F787083EC001005F
:102F04000100930A700523005405130A80FA230074
:102F1400440501000100231124032310940223001B
:102F240004048247F3A7078001000100294597E0C4
:102F3400FF1FE780E08BF3B9098093F989084EC23B
:102F44000100010023005405230044050100010091
:102F54008357040293E707202310F4022300040498
:102F6400924781BF411131E593078008F3B7078089
:102F740093F787083EC001000100B717004013070C
:102F840070052380E704130780FA2380E704010017
:102F9400010003C7E70093C5F5FF6D8F2387E700A2
:102FA400238007048247F3A7078001000100410141
:102FB400828013078008F337078093F787083EC29F
:102FC40001000100B71700401308700523800705AE
:102FD400130580FA2380A7040100010083C6E700DB
:102FE400CD8E93E606042387D700238007049246F8
:102FF400F3A6068001000100F336078093F68608E5
:1030040036C401000100238007052380A7040100C2
:10301400010083C6F70093F6C60FA387D700238069
:103024000704A246F3A60680010001007337078057
:10303400137787083AC6010001002380070523801F
:10304400A7040100010003C7F7007D163336C00052
:10305400518FA387E70023800704B247A9B7B717A6
:10306400004098479317070113770704C18309EBBE
:10307400FD8B3755E801130505803345F502828041
:1030840013F7070C930600046316D700FD8B37452E
:103094009C1CD5B72165130505D0828037E700E075
:1030A4001C435443A183E206D58F1CC1FD57232042
:1030B400F7182322F718828013178500B7E700E07A
:1030C40023A0E710618123A2A7108280B7F700E054
:1030D4008847CC47828041119397050122C406C6D4
:1030E40026C2C1872E8463DE0700EF00F03119C1C8
:1030F400EF0030262165218DB240224492444101E3
:10310400828093F7150013C51500FDF7916433F51C
:1031140095007DD113060064916503C5C187EF1046
:103124008002258C131504014181F9B71D714946AC
:1031340097D50100938585B817D50100130545DEA1
:1031440086CEA2CC97E0FF1FE780C07611E101A0F4
:1031540037F700E0795610CBFD5654CBB7E700E0C3
:10316400056423A087109306F00214C323A08718D4
:103174000100010017F7FF1F1307C74923ACE186BD
:103184004157A38AE7401306C0038145480897E0E6
:10319400FF1FE780A06797F7FF1F9387A77C3ECAAE
:1031A400896793870780231CF100ED472312F102FE
:1031B4009547A301F10285472303F102930754D1F4
:1031C4002314F102B7F5070097070000938747F02F
:1031D4003EDA814697070000938727167000E105C1
:1031E40019453EDC97E0FF1FE7800025B2473ED635
:1031F400835701012318F102D24789C783578101FC
:1032040063F3870001A04808EF10E06111C101A039
:10321400F6406644256182804111170500001305BC
:10322400C5EB06C6EF10605C238EA186B120B240C8
:10323400410179A2411193078008F3B7078093F7FE
:1032440087083EC601000100B71700401307700548
:103254002380E704130780FA2380E70401000100B8
:10326400C8DB23800704B247F3A7078001000100ED
:1032740023A0018841018280797106D61307800852
:10328400F337078093F787083EC401000100B7179E
:103294000040930570052380B704130680FA238049
:1032A400C7040100010083C6F70293F6D60FA38773
:1032B400D70223800704A246F3A60680010001007A
:1032C40073370780137787083AC60100010023800B
:1032D400B7042380C7040100010003C7F702136782
:1032E4005700A387E70223800704B247F3A70780A8
:1032F40001000100814701478146054685451305C4
:10330400407EEFF0EFD308084146814597E0FF1F68
:10331400E780C04FB707C0A83ECAB78732003ECC8B
:10332400080897D7FF1F938707553EC8EF10407DC5
:10333400B25045618280011122CC06CE930740032E
:103344001304C5FC63E7A7003704C0A81304C4FC36
:103354002A946800A133EFF02FEDB307A4406376FD
:10336400A400B707C0A8A297898F3747F6A693870A
:10337400F7FD1307F7C5637AF700324509442D3B7F
:10338400F24022856244056182802285653532459A
:10339400253303A401881DE01165690597D0FF1F3B
:1033A400E78040E50545EFF0CFC4EFF0EFE72AC42E
:1033B400EFF08FE7A247E30DF5FED9B70D44C9B787
:1033C400411113078008F337078093F787083EC439
:1033D40001000100B7170040930570052380B7046E
:1033E400130680FA2380C7040100010083C6E700A6
:1033F40093E686002387D70023800704A246F3A61A
:1034040006800100010073370780137787083AC6E6
:10341400010001002380B7042380C70401000100D8
:1034240003C7170313670702A388E702238007046F
:10343400B247F3A7078001000100B7E700E03707B0
:10344400001023A0E71041018280238901880547E9
:103454002388E188A3870188B72506004111AA873C
:103464001167930600401166938505A8014506C6B9
:10347400EFF01F84854513050040EFF06FFE85458E
:1034840013050020EFF0CFFD854513050010EFF084
:103494002FFDB240B7E700E03707004023A0E71054
:1034A40041018280011126CA06CEB68422CC4AC8C4
:1034B4004EC69306000263E0C60C83C621892A84A3
:1034C40013892189795599E209EA0145F240624458
:1034D400D2444249B2490561828089462300D90019
:1034E4002388E188238401881385C19BA386C1882E
:1034F40023870188EFF0AFA0A388018883C71189CF
:103504000604C18F0145A388F188EFF02FF103C7AA
:10351400F188854793891189631BF704A387018880
:103524003754004003C50900EFF06FF5835704805A
:10353400918BEDFB854513050040EFF06FF2854557
:1035440013050020EFF0CFF1854513050010EFF0CF
:103554002FF191C4894703470900E30EF7FE83C79F
:103564008188A5D703C581883305A04085B7054563
:10357400EFF0AFE8F9BF7D5591BF9307000263E117
:10358400C710011152C406CE22CC26CA4AC84EC660
:1035940056C25AC083C721892A88138A218979553A
:1035A400CDEF3284014555CA854A23005A01238848
:1035B400D18823840188238701881389118993077B
:1035C400F6FF23005901BA84A386F18883470900D2
:1035D4000608AE89B3E7070193F7F70F2300F90054
:1035E400EFF0CFE383C7F18863935709A38701887A
:1035F400B75A004003450900EFF06FE883D70A800B
:10360400918BEDFB854513050040EFF06FE5854593
:1036140013050020EFF0CFE4854513050010EFF00B
:103624002FE40149854A7D5B83470A00639C570167
:10363400054597D0FF1FE780801C0509E38664FFDA
:10364400E34499FE83C7E18863E787022286938572
:10365400C19B4E85EFF0AF8A2285F2406244D2448A
:103664004249B249224A924A024B05618280054589
:10367400EFF0AFD87DB703C4E1881374F40FF9B742
:103684007D55828082809307300B63FAA70217C7A7
:1036940001001307E7638547BA86754683554700DB
:1036A4006378B500FD178A07BE9603C5260082809D
:1036B40085071107E394C7FE130540068280014580
:1036C4008280411106C69386418983C70600138709
:1036D400C19D1396170032972310A7008507294729
:1036E400B3E7E702138731892380F6008347070095
:1036F400A54663E5F60085072300F7008346070027
:1037040081471387C19D01456394F6023355D50261
:10371400420541818D3F97F7FF1F9387E703984345
:103724006354A7001375F70FB24088C34101828028
:1037340003560700850793F7F70F32950907E9B792
:1037440079711305700706D60933B707070099077F
:103754003EC20547A547854619464C001305700728
:103764002314F1008133C14701478546054693057B
:10377400310013057007A301F1002D336340050CDC
:1037840013074006854649466C0013057007F53358
:103794006346050A8347F10083460101034711018B
:1037A400B2079206D58F135647005D8ECD8381C72D
:1037B400B707F0FF5D8E9386019F90C203562101E7
:1037C4004207931786002182D18FC20737060F0064
:1037D400718FC183D98F4D8301C73707F0FFD98F0C
:1037E40003578101DCC2931787002183D98F0357C4
:1037F400C101C207C1839CC6931787002183D98F57
:1038040003574101C207C183DCC693178700218394
:10381400D98F03576101C207C1839CCA93178700DC
:103824002183D98F0357A101C207C183DCCA93172F
:1038340087002183D98FC207C1839CCEB2504561D2
:10384400828041119305000A1305000206C697E021
:10385400FF1FE780C09891451305500297E0FF1FB2
:10386400E780E097B1451305000397E0FF1FE78069
:1038740000979305C00E1305100397E0FF1FE78020
:1038840000969305C00E1305200397E0FF1FE78001
:103894000095A1451305200297E0FF1FE7802094BF
:1038A400930550021305300397E0FF1FE780209330
:1038B400930500081305400397E0FF1FE78020925B
:1038C400A1451305300297E0FF1FE7804091B24005
:1038D400930500021305F003410117E3FF1F67007E
:1038E400039041119397050122C406C6C1872E8413
:1038F40063DD070003C5C189012E11C1992C21651F
:10390400218DB24022444101828093F7150091CB6E
:1039140017F5FF1F130585E4EF30C11D134514008F
:10392400CDB793F725008DCB4166130606A08945D4
:1039340003C5C189EF00300197E0FF1FE780A0981D
:1039440097F6FF1F9386C6D07D4685450145EF4017
:10395400D0121345240075B793F7050199CF97D07A
:10396400FF1FE780803F13060064A14503C5C1899A
:10397400EF00607D1345040169B793F7850095C393
:103984001385018A97D0FF1FE780C0405D66130648
:103994000670C14503C5C189EF00E07A1345840070
:1039A4008DB793F70502A9C783C7D18903C5C18918
:1039B4008DCB2166130606D093050004EF00A07892
:1039C400A38E018897F6FF1F938686C889477D4694
:1039D40085450145238CF600EF40300A1345040267
:1039E4000DB71306003293050002EF00C075FDB752
:1039F40013F50504E30705F097F6FF1F938646C504
:103A04007D468545014597F7FF1F238F07C4EF4087
:103A1400D006130600329305000203C5C189EF00E6
:103A2400807213450404F1BD01111705000013054C
:103A340085EB06CE22CC26CAEF00305B1384C18905
:103A440085472300A4002307F1001306E1008D47F6
:103A5400854513055030A307F100EF4011571306B5
:103A6400F100854513058030EF40315617F6FF1FEE
:103A7400130606BEFD4513056030EF4011558564FD
:103A8400938504C80D45EF205022938504C8114541
:103A9400EF20B0217531753303450400138604C843
:103AA40085455525034504001386047C8945612D0D
:103AB4000345040013060064C14571250345040051
:103AC4006244F240D24413060032930500020561B9
:103AD4009DAD4111054506C6EFF0CFB61305800430
:103AE40097D0FF1FE780E0A885457D55EFE05FF59F
:103AF40085457D55EFE0BFFE81450565EFE03FFE5E
:103B040089450565EFF08F87B7E700E037070400C4
:103B140023A0E7104146C1450545EFF0AFC4EFF0DF
:103B2400EFE0EFF06FEFEF40317CFD3D97E0FF1FDA
:103B3400E780408223AC05FE1C4191E701000100AF
:103B44000CC18280BA8703A787FF6DFF23ACB7FE41
:103B54008280411122C426C237C4004006C6832491
:103B6400C420232604200F10000009E923269420F2
:103B74001545B24022449244410182800347E5FF47
:103B84009307F00F6306F700232694201145D5B759
:103B940097F0FF1FE7802081014523269420D1BFA1
:103BA400411126C24AC0B7C4004006C622C403A9B4
:103BB400C42023A604200F10000009E923A6242111
:103BC400B240224492440249410182809565938522
:103BD40005D0C98D2A842105C2054205C1814181D0
:103BE40097E0FF1FE780406D01CDFD5723200500BE
:103BF400231285002303F50023A624212105C9B738
:103C040023A6242101456DBF411126C2B7C7004038
:103C140006C622C483A4C72023A607200F100000D1
:103C2400970700209387C758904301440147B28700
:103C340091E711E8A165EF00207A35A083C6E7FF7C
:103C4400639DA60221C0832684FF631FC402170755
:103C54000020232FD7547D57232C04FE230FE4FE8A
:103C6400F1DBA165952E2285B2402244B7C70040FE
:103C740023A6972092444101828011E03E8783A7C6
:103C840087FF7DB73E84E5BF232CD7FEE9B74111FA
:103C940026C24AC0B7C4004006C622C403A9C42031
:103CA40023A604200F10000089E523A6242115452E
:103CB40015A02A849707002083C7D74F2E856375E4
:103CC400F400894763EE87006935B7C7004023A62F
:103CD40027210D45B2402244924402494101828089
:103CE40083A785FF99E703C7E5FF9307F00F6308F0
:103CF400F7008535B7C7004023A627214DBF238F82
:103D040085FE170500201305A54A2D35A1652285DA
:103D1400E124014523A6242175BF9707002023A988
:103D240007488280970700209387874D9C4399E337
:103D34003E85828003D727006316B70003C70700B8
:103D4400E308A7FEDC47E5B7C9C1797122D406D6DA
:103D540026D24AD04ECE01444147B3D78540858B05
:103D6400A5C31205314722953305E50297070020C4
:103D74009387074D03A907008544B3948400C204C4
:103D8400C180BE892A990327090011C70325490068
:103D94002EC60297B24531473304E40283A70900D3
:103DA4003E941C4489E72320090023220900B250D1
:103DB4002254A58D02599254F2492E854561828080
:103DC4000504E31CE4F88144DDB72E8582804111AB
:103DD4001397050122C406C626C24AC041872E8411
:103DE400635E0700153511C1AD33A1673D8C228593
:103DF400B24022449244024941018280EDD9AA870B
:103E040001474146B356E440858A8DCE9207BA975E
:103E1400B146B387D702970600209386664203A96A
:103E240006008544B394E400C204C1803E9983270C
:103E34000900032549008297232009002322090051
:103E4400258C75B70507E31FC7FA8144D5BF411117
:103E540026C2B7C7004006C622C483A4C72023A62F
:103E640007200F100000970700209387A7399C5361
:103E74001384C18099C782971C403E9523A6A180D4
:103E840039A097070020938727379C43EDF71C4000
:103E9400374703001307D73FB387E70237A7260046
:103EA400130737ECB240BA9723A6F180B7C7004096
:103EB40023A69720084022449244410182807971CC
:103EC40026D2B7C7004006D622D44AD04ECE52CC12
:103ED40056CA5AC85EC662C483A4C72023A6072054
:103EE4000F10000005E123A697200945B250225483
:103EF40092540259F249624AD24A424BB24B224C82
:103F040045618280970700209387072F9C43BA8AD4
:103F1400368AB28B2E8BAA898297970700209387C3
:103F2400273298433E890144B146C147330CD40239
:103F340033068701104241EAC165938505F0414586
:103F440097E0FF1FE780403705E19707002093873C
:103F5400672B9C5B81C7814511458297B7C7004099
:103F640023A697202D4559B7970700209387472903
:103F7400984331E79707002023A4A72823000500CE
:103F840083270900054733178700232605002324C8
:103F940075012311E50023225501E29723A037017F
:103FA40023A2670123A4570163040A0023008A00A3
:103FB400B7C7004023A6972001450DBF3E875C4745
:103FC400F5FF48C765BF0504E312F4F6B7C7004020
:103FD40023A69720214519BFB7C7004083A6C72051
:103FE40023A607200F100000170700200347971C83
:103FF4006373E50217060020130646201317150005
:1040040008423A9503570500D98D2310B50023A61D
:10401400D7200145828023A6D7200D458280B7C7CB
:10402400004083A6C72023A607200F10000017070F
:104034000020034737186375E502170600201306AE
:10404400E61B13171500084293C5F5FF3A9503576D
:104054000500F98D2310B50023A6D72001458280E1
:1040640023A6D7200D458280011126CA37C70040F8
:1040740006CE22CC4AC84EC652C48324C720232667
:1040840007200F100000130705FF1377F70FFD47F4
:1040940063E5E70AB146B306D50297070020938784
:1040A400271A984336971C43C9CB135A4500054435
:1040B4003D893315A4001314050141802E895285CE
:1040C400A2858D31AA8929CDA2855285893F97077A
:1040D4000020938767129C4382979707002083D719
:1040E4006717338727032A84814613060064B3B70E
:1040F400270313050732B335E500BE95EF90F1278A
:10410400B307850097060020938646143E87D44261
:1041140063E4A70063E4D7003387D74023A4E9000E
:10412400B7C7004023A697200145F2406244D24419
:104134004249B249224A05618280B7C7004023A69A
:1041440097200945DDB7797126D24ECEB7C4004019
:1041540006D622D44AD052CC56CA5AC85EC683A9BF
:10416400C42023A604200F1000009707002083C753
:104174007704637AF500970700209387E70783ABFA
:10418400070063970B00B7C7004023A63721A9A0F7
:10419400170B0020130B8B0B832A4B00B74736FEFB
:1041A400938707C82E8A9705002083D5A50ABE9A4F
:1041B400B387C5022A8432898146B3B5C502138503
:1041C4000732B337F50013060064BE95EF90F11A79
:1041D40063F0AA0223A634210145B250225492541A
:1041E4000259F249624AD24A424BB24B456182803B
:1041F400829B9705002083D5E505B3872503AA8410
:10420400130600648146B3B5250313850732B3371B
:10421400F500BE95EF907116B3079500BE84032791
:104224004B0063E4A70063E4E700B384E740D2856E
:104234002285CD3C01C904C5B7C7004023A6372158
:10424400054561BF936504F0C205C181414597E00E
:10425400FF1FE780600619E997070020938787FA14
:104264009C5B95D3A2851145829731BF97070020A7
:10427400938707F99C439DE39707002023A2A7F89F
:1042840085472326050004C5231145012300850025
:10429400A300F5002322050045B7BA87D84775FF68
:1042A400C8C7F9BF79714ECEB7C7004006D622D42D
:1042B40026D24AD052CC56CA5AC85EC662C466C216
:1042C4006AC083A9C72023A607200F10000035C1A8
:1042D40041443689B28A2E8AAA84B14C170B002035
:1042E400130B0BF6054D130C0003B30B94030327B8
:1042F4000B005E971C43B9EF9375F400B315BD0032
:1043040013554440C2055686C1811375F50F253DEA
:1043140031C183270B00DE9784C323A247016304C2
:10432400090023008900B7C7004023A637210145AF
:1043340021A023A637210945B25022549254025990
:10434400F249624AD24A424BB24B224C924C024D41
:10435400456182800504E31A84F9B7C7004023A6A7
:1043640037212145D1BF011122CC26CA4AC84EC6E5
:10437400B7C7004006CE03A9C7202A84AE89B284F9
:1043840023A607200F1000007D3B2285CE85EFF089
:104394007F992A8405C59705002083D5A5EBB387AB
:1043A4009502130600648146B3B59502138507325E
:1043B400B337F500BE95EF90417C48C01335140027
:1043C400F2406244B7C7004023A62721D2444249A1
:1043D400B2490E0505618280011122CC4AC84EC63D
:1043E400B7C7004006CE26CA83A9C7202A892E84CF
:1043F40023A607200F100000EFF0DF92AA8419C152
:1044040023110500A2854A8519399707002083C71F
:1044140067DA639B27019707002083D7A7DD5D8CAC
:1044240097070020239887DCB7C7004023A63721CD
:10443400014591E01945F2406244D2444249B249EF
:1044440005618280011126CA4AC8B7C4004006CE5D
:1044540022CC4EC603A9C42023A604200F100000BA
:104464009307F00263E8A704B1473304F502970900
:1044740000209389E9DC83A70900A2979C439DCB84
:104484009377F5008545B395F500C205C181118187
:10449400A13783A709000145A29723A0070023A2FF
:1044A400070023A62421F2406244D2444249B2497F
:1044B40005618280B7C7004023A627210945E5B7D7
:1044C400411126C206C622C4B7C7004083A4C72030
:1044D40023A607200F100000EFF0DF8419E901453F
:1044E400B2402244B7C7004023A69720924441011A
:1044F400828097070020938727D09C4300458297AA
:1045040097070020938787D46368A402D843B746EB
:1045140036FE938606C83305A4403697E371E5FC5E
:1045240013070064B335E50203D6870081463305DB
:10453400E502EF9081646DB7D8433A94C1BF01118D
:10454400680006CE22CC26CAEFC0B009FD57630B23
:10455400F50AB247DDC397070020938727CF970456
:104564000020938424C59448D8433E846387E6029C
:1045740097070020938747C89C438297B24798487F
:1045840063F3E7003E87B307A7003E85544063E426
:10459400E70063E4D7003385D740170400201304F1
:1045A40064E41C4C81CF970700209387A7EA9443C7
:1045B4003707CDFF7D179C46F98F9CC611E59707F9
:1045C40000209387A7C8C84397070020938787C311
:1045D400DC53829719E51C4C8DC3EFE01006EFD035
:1045E400305B1C4C99CB970700209387A7E6984330
:1045F400B70633001C47D58F1CC7F2406244D2442F
:1046040005618280970400209384C4BA17040020B3
:104614001304C4C394485840970700209387C7BD28
:104624009C436393E60282975440B74736FE9387D0
:1046340007C8B6973387A7003A856364F700E36E2B
:10464400D7F43305D74091BF829794485840B38735
:10465400A6003E8563E4D700E3E1E7F43385E74051
:104664002DBF411106C69707002023AFA7BC0295B2
:10467400B2409707002023ABA7B4014541018280D3
:10468400914763E9B7008A0597070020938747B5E8
:10469400BE9588C182809707002023A5A7BA11C5BB
:1046A4008547170700202308F7B48280411151463B
:1046B4008145170500201305A5B206C697070020FB
:1046C40023A007B49707002023A007B8970700206A
:1046D40023A407B297070020238F07B09707002071
:1046E40023A207B697D0FF1FE7804012130680026B
:1046F4008145170500201305E5AB97D0FF1FE78020
:10470400E010EF4021489707002083C7F7B013D586
:1047140027008D8B3E958D473305F5028545390578
:104724001375F50F970700202387A7A8994733052A
:10473400F5021305052497E0FF1FE780E0B717078C
:104744000020232FA7AE59CD994717060020034612
:1047540086A63306F60281451306062497D0FF1F6A
:10476400E780C00A97070020938787AD9C4393870F
:104774000724170700202323F7A617070020034761
:1047840087A30A07BA97170700202329F7A6EFF093
:10479400CFD8A92997070020938747A49443970764
:1047A400002083C737A113972700369717F6FFFF1A
:1047B4001306C65910C3138717001377F70F0A0798
:1047C400369717F6FFFF1306C66010C3138737002A
:1047D400890793F7F70F8A0797050020A38CE59CB8
:1047E400B69790C3B240410182809707002083C7E7
:1047F400779C170700200347079C63F3E70217071A
:1048040000201307A79D184393861700170600205E
:10481400A302D69A93962700369708C33E858280D2
:104824009307F00FE5BF1C416382071441777D8F26
:10483400B70600208947631CD71203574500630855
:104844000712411122C419462A849305F00F610509
:1048540006C697D0FF1FE780C00D05478D4763024A
:10486400E5101C4491C75858994765CF185C75CB1F
:104874001306C0038145170500201305A59897D09A
:10488400FF1FE780A0F81306C003A28517050020C8
:104894001305459797D0FF1FE780A0F01707002066
:1048A40003570797970700209387C79519E71307BE
:1048B400001097060020239DE69417070020034765
:1048C400479511E70547970600202384E6941707C8
:1048D40000200357279411E76D4797060020239B78
:1048E400E692170700200347D79211E7154797066A
:1048F4000020A380E692170700200347C79111E721
:104904000547970600202388E690170700200347F1
:10491400979019E703C7F70097060020A38DE68E4A
:10492400170700200347478F11E7554797060020D4
:104934002384E68E0347640119E71307C00397062F
:104944000020238CE68C9C5791C782979707002000
:104954002396A786FD5717070020A30FF7B4B93392
:104964008147B24022443E854101828089473E8589
:10497400828001114EC6970900209389298D83A74F
:10498400090006CE22CC26CA4AC852C4829713090B
:104994000064B335250303DA890081465286330562
:1049A4002503EF90811D970700209387A780804FF0
:1049B400AA8401456306940233858440636E94009F
:1049C40003A5490052868146B335A9023305A902DD
:1049D400EF90A11A018D269597F7FF1F23A8977EC4
:1049E400F2406244D2444249B249224A056182807B
:1049F4009707002083D7278651471D45637CF7021C
:104A0400794719456378F702130720031545637343
:104A1400F7021307B0041145637EF700130740063D
:104A24000D456379F7001307600909456374F700BE
:104A340013B5B70F8280011122CC06CE2A842EC66C
:104A4400EFF0EFC0B245F240818D33A5A502229567
:104A540062441375F50F05618280011122CC06CEE4
:104A64002A842EC6EFF0AFBEB245F240818D33A545
:104A7400A5022295624442054181056182800111AB
:104A840022CC06CE2A842EC6EFF06FBCB245F2408B
:104A9400818D33B5A502229562440561828097F722
:104AA400FF1F93872776985739CB411122C426C21A
:104AB40006C6BE84029717F7FF1F035727702A8480
:104AC40015CBBA876373A700AA87C207C183BA86C6
:104AD4006373E400A286C206C182958F5147635B6B
:104AE400F700DC5491C38297EFE0201E97F7FF1F75
:104AF4002396876CB2402244924441018280828092
:104B040097F7FF1F83C7477599C7054582800545F9
:104B1400F2400561828097F7FF1F9387A76EDC57E9
:104B2400011106CEAA8581C72AC68297B245ADCDAA
:104B34009C41F1DFDC41E1DF83D78500E9DB83D7EA
:104B4400A500F1D7414617F5FF1F1305257097D02F
:104B5400FF1FE78000C597F7FF1F9387276F9C43CC
:104B640017F7FF1F232AF76897F7FF1F83C7F76A12
:104B74008DE79307805717F5FF1F0355A56D330580
:104B8400F50237460F001306062481468145EF805F
:104B9400D17E97F7FF1FA382A768170500001305AE
:104BA40085DDC1340145ADB797F7FF1F23A2076226
:104BB40097D7FF1F9387C71517F7FF1F2328F76899
:104BC4007D5797F7FF1F23A5E768B78732009387C0
:104BD40027A197F6FF1F23AFF66697F7FF1F238DD4
:104BE4000766B7C7004023A4E726B5B7011122CC56
:104BF40017F4FF1F13040461084406CE26CA4AC8EA
:104C040001E90545F2406244D2444249056182808B
:104C14005C58E5DB185C75D77000854582971844AD
:104C2400B247E300F7FE9305E00417F5FF1F0355B1
:104C3400255E97D0FF1FE780206817F7FF1F232BFF
:104C4400A75861D117F6FF1F0356865C9305F00F32
:104C540097D0FF1FE78080BB814417F9FF1F13091A
:104C6400695597F7FF1F83C7C75A0326090263C113
:104C7400F402328597D0FF1FE780E072014597F771
:104C8400FF1F23A9075497F7FF1F23A707549DBFAE
:104C940097F5FF1F83D5C557B38795020844185C61
:104CA400898185043E9508C2029765BF011156C2E9
:104CB40097FAFF1F938A0A5583A78A0022CC4AC811
:104CC4004EC606CE26CA52C45AC0AA892E84328938
:104CD4006386072203A74A03630907141307F01F17
:104CE4006367A71497F4FF1F9384C44C03AA0402B8
:104CF40063170A0A9565938515E017F5FF1F035599
:104D0400255197D0FF1FE780205B97F7FF1F23A350
:104D1400A74C2A86630B051083A74A0303A58A00C0
:104D240097F5FF1F83D5C54E8981829783A78A0093
:104D340003AA040217F7FF1F2320F74A8947639C3D
:104D4400F908C1476313F40E97F5FF1F83D5454C4B
:104D5400938505FC9147B3C5F5028A05D29503C72F
:104D640025009307A005631EF70A83D70500639AFD
:104D7400370B4A852286910597D0FF1FE78060A2F2
:104D84009C505285639347150145F2406244D244D6
:104D94004249B249224A924A024B05618280D85064
:104DA400E38EE7F89565938525E017F5FF1F035516
:104DB400254697D0FF1FE78020502A8A3DC52A86C2
:104DC40083A74A0303A58A0097F5FF1F83D54544AB
:104DD40089818297A5B78D47639DF900C147631602
:104DE400F40497F5FF1F83D5A542938545FDF199FA
:104DF400B5B79147639AF9006319340397F5FF1F18
:104E040083D50541A115E5B793070010639FF90009
:104E1400A14763EC870097F5FF1F83D5653FC11554
:104E2400F9B79C5052856396470D2945B9BF1D6A51
:104E3400568B6371450B130A05E01947334AEA029E
:104E440017F7FF1F0357C73C97FAFF1F938A8A3649
:104E5400330AEA023E9A83A74A026395470183A470
:104E64000A029DE49305E00417F5FF1F0355453A34
:104E740097D0FF1FE7804044AA8445D983274B037A
:104E840097F5FF1F83D5C5382A8689815285829775
:104E940091451307A005898193972500A69783C69A
:104EA40027006393E60483D60700639C36038505D5
:104EB4008A052286A6954A8597D0FF1FE780608ED3
:104EC40083A70A02E38297EC268597D0FF1FE78029
:104ED400804D5DBD21677917E369A7F4330A454125
:104EE40085B783C5370045BF83A70A02E38F97F2CE
:104EF400268597D0FF1FE780004B05BF97F7FF1F5C
:104F04009387472B8C5395D191479306A0058983AA
:104F1400139727002E9703462700E318D6F003566D
:104F24000700631C360185078A072286BE954A85D9
:104F340097D0FF1FE780E08681BD83473700C1BF5C
:104F440097F7FF1F9387072C984739C79C5FA9C71A
:104F540005476313E504411122C417F4FF1F13042A
:104F64006425105006C60DC6485097F5FF1F83D51B
:104F7400252A89818297085097D0FF1FE780A04295
:104F840097F7FF1F23A8072497F7FF1F23A60724DB
:104F9400B2402244410182808280011117F7FF1F31
:104FA400130747264EC68329870022CC26CA4AC83F
:104FB40006CE52C456C2AA842E843289638B092039
:104FC4001C5FBA8A99EB2945F2406244D2444249B3
:104FD400B249224A924A056182805C5BEDD793070D
:104FE400F01F63EAA70E97F9FF1F9389A91C83A7F3
:104FF4000902B1CB03A58A0083A749026395A706DA
:1050040089476393F408C147E31FF4FA17F5FF1FB8
:10501400035505209147130505FC3345F502931705
:10502400250003A509022286CA853E959307A0059B
:105034002301F50023109500110597C0FF1FE78099
:105044004076014551B79305E00417F5FF1F03555A
:10505400251C97D0FF1FE780202697F7FF1F23AB5F
:10506400A71649F98DB783A74A0303A6090297F542
:10507400FF1F83D5E5198981829783A78A0017F7D3
:10508400FF1F232BF714ADBF8D47639EF400C14768
:10509400E31BF4F217F5FF1F03558517130545FDB0
:1050A4009377C5FFBDBF9147639AF400E31D94F065
:1050B40017F5FF1F0355C5152115DDB7930700101C
:1050C400E393F4F0A147E3E087F017F5FF1F0355DE
:1050D40025144115F1B79D676379F506930705E03B
:1050E4001947B3C7E70217F7FF1F0357671217FAE9
:1050F400FF1F130A2A0CB387E702BE9983270A020B
:10510400A1CF83274A026399370703250A029146F0
:105114001308A0059305F00F93D7260013972700D3
:105124002A9703462700631F060783580700034690
:10513400370063959806B306D64063CF8604850787
:105144008A072286CA853E95CDBD21677917E36C0F
:10515400A7E6B307F54041BF9305E00417F5FF1F29
:105164000355050B97D0FF1FE780001597F7FF1F26
:1051740023A2A70659F581BD83A74A0303260A0281
:1051840097F5FF1F83D5C50889814E85829797F7C8
:10519400FF1F23A3370595BF2310B70093160601FD
:1051A400C1829DBFB385860017F6FF1F03564606CE
:1051B4009105130606FCE3F8C5E013063400719A62
:1051C4001106B2962301070123109700A301D7000B
:1051D400BDB797F7FF1F9387E7FD9453BE89A9C214
:1051E40003A5090291461308A0059305F00F93D770
:1051F4002600139727002A970346270063180605FD
:10520400835807000346370063989800B306D640D6
:10521400E3D786F22310B70093160601C182C1BFFB
:105224008357C70017F5FF1F0345A5FE9305E00448
:105234003305F5024205418197D0FF1FE780C0077F
:1052440097F7FF1F23A8A7F841FDB5BB17F6FF1F6B
:10525400035606FC97F5FF1F83C5A5FBB385C5025E
:10526400338686001106E3E0C5D681BF01458280FE
:10527400011106CE2EC6EF70607D01C9B245F24021
:105284000355250005616FB05013F240494505618F
:105294008280A388018C2388018C23AC018A23AEED
:1052A400018A23A0018C23A2018C23AA018A23A8AA
:1052B400018A97F7FF1F938767FC93064038239171
:1052C400D702F1761307400B938606B82391E700C3
:1052D4002392D70211679D46130600059305000A21
:1052E4001305007D2392E7002393D70241478546A7
:1052F400130810F82395E7002396E7002399E700A5
:10530400239AE700239BE700239CE7002394E7020A
:10531400239007002393B7002394B7002397C70073
:105324002398C700239DA700239E0700239F0700FF
:10533400239007022395D702239607032397070296
:105344009308F007239807022392E7042393E704C2
:10535400239FE7042390E7062391E7062392E706B9
:10536400239917031307C01C239AD702239BD70240
:10537400239C0702239D0702239E0702239F070203
:10538400239007042391D704239407042395070447
:105394002396D7042397C7042398C7042399A70403
:1053A400239A0704239B0704239C0704239DC70413
:1053B400239EC7042393A706239407062395070671
:1053C400239607062397B7062398B706239907065B
:1053D400239AE7065147239DE7067D57239B07063B
:1053E400239C0706239ED706239F070623900709BD
:1053F4002391E7088280011126CAAA84214522CC80
:1054040006CE2E8432C636C43AC2EFE06FF91DC907
:10541400A24612473246930700FD2300F500994740
:10542400A30095002301F5002303D500A303E500A1
:105434002312C500AA8522856244F240D244056144
:105444006FE0FF84F2406244D2440561828023AC61
:10545400A18A828023AEA18A828023A0A18C82802B
:1054640023A2A18C8280011122CC4AC806CE26CA6E
:105474002A890144B30489006368B400F240624499
:10548400D2444249056182802EC6EFE05F9C9317A7
:105494000501C183A183B2452380F400930714005E
:1054A40093F7F70F850463F9B700CA9709042380BB
:1054B400A7001374F40F7DBF3E847DBFC16717F549
:1054C400FF1F035505DAFD176304F502411117F6B2
:1054D400FF1F034666EE9385818C06C6EF70003588
:1054E400B240FD5717F7FF1F231DF7D641018280F5
:1054F400828009C925151375F50F1335850E1345DB
:10550400150082800145828023900500C9C6797107
:1055140022D426D24ECE52CC5AC806D64AD056CA27
:105524005EC63684328AAE892A8B814463F344078B
:10553400B307940083C70700138914004209939AA0
:10554400070193DA0A011359090163840A04CA970B
:105554006341FA04B307240183CB07005E85513FFE
:105564000DC99387FAFF2390F90063906B03130529
:1055740019002295B250225492540259F249624AB7
:10558400D24A424BB24B45618280D694C204C18058
:1055940071BF0145C5B701458280411126C2AE8461
:1055A40022C497F7FF1F23A5C7CC97F7FF1F23AF8C
:1055B400B7CA97F7FF1F23A9A7CA2A8441469305B0
:1055C400F00F26854AC006C6054997C0FF1FE7802D
:1055D40040366310250597F7FF1F938727C8884B2C
:1055E400C145513541469305F00F228597C0FF1FF1
:1055F400E7802034854463189502224497F7FF1FFF
:105604009387C7C5B24092440249C847C145410186
:1056140099BD41468145268597C0FF1FE7806031CB
:10562400E31225FD4DBF41468145228597C0FF1FEA
:10563400E7802030E30395FCB240224492440249BF
:1056440041018280411122C426C22E84AA841306F9
:105654000002814517F5FF1F130545C006C697C014
:10566400FF1FE780A01A97F7FF1FA38A97BE97F73B
:10567400FF1F238587D4EFB04056854719C1814762
:105684004945B240224417F7FF1F2309F7BC92444F
:1056940041018280814781CD19C98547631BF5008B
:1056A40083C7550093E707FCA382F50085473E8531
:1056B400828089476317F50083C7550093F7F70382
:1056C400E5B70D478547E314E5FE03C75500137797
:1056D400F70313670704A382E500D1BF81478DC197
:1056E40005C103C755009306000C85471377070CC3
:1056F4006308D700930600048D476303D7008947E6
:105704003E858280411122C4005D06C626C21DC8A2
:10571400AA84085009C597D0FF1FE780C0C8485025
:1057240009C597D0FF1FE78000C8085409C597D062
:10573400FF1FE78040C7228597D0FF1FE780A0C6E0
:1057440023AC0402B240224492444101828009ED18
:1057540097F7FF1F83C7A7B017F5FF1F130585B180
:1057640081CB1385818A828017F5FF1F130585B0CD
:10577400828017F5FF1F034585AE828097F7FF1FD0
:105784009387C7ADC847828097F7FF1F938707ADFC
:10579400884B828097F7FF1F938747ACDC4B884385
:1057A400828097F7FF1F938767ABD84B1C4385070D
:1057B4001CC317F5FF1F034595AA9307F00F630554
:1057C400F50091656FE05F818280011122CC06CEE5
:1057D4002E8432C6EF7040389147B245631FF500FE
:1057E4009387418C9C438DC303A30700630E03007E
:1057F40022856244F240056102839387C18B9C43F6
:1058040081C703A34700DDB7F24062440545056143
:105814008280011122CC2A840355450006CE26CA73
:105824004AC84EC6EF70601135C52A898344050005
:105834008349C500C13D4A85EF70206D035544007E
:10584400EF70C02C83C7018DB1CB6399970483C5D6
:10585400118D2685EFF0DFA119E12388018C035512
:105864004400EF70602F9147631FF5000357440015
:1058740097F7FF1F83D7E79E6317F700FD5717F7C6
:10588400FF1F2310F79EF2406244D2444249B249BA
:105894000561828081499304F00F6DB79307F00F7F
:1058A400E38FF4FA8346640003564400034524005E
:1058B4004E87A685893665B779715EC6AA8B2E8513
:1058C40052CC56CA5AC806D622D426D24AD04ECE74
:1058D400AE8A328B368AEF7040067DC1045D2A8918
:1058E400E5C09C50614599C3130540039C5481C78E
:1058F40051054205418163050A0071054205418154
:10590400DC5081C75D0542054181EFE06FA92A841F
:1059140045C96146814597C0FF1FE78020EF97F98D
:10592400FF1F83C9A9986394090083490900930759
:1059340000FD2300F400A947A30074012301F4002F
:10594400230364018C50231254011305840191C96B
:1059540008C47146930A440397C0FF1FE78060E4BC
:1059640056858C5491C948C45146930A450197C041
:10597400FF1FE78000E35685630C0A0008C87146E0
:10598400D285930AC50197C0FF1FE78080E1568541
:10599400CC5099C548C85D4697C0FF1FE78060E0BA
:1059A400A2854E85EFE0AFAE2254B2509254F24934
:1059B400624AD24A424BB24B4A850259456199B375
:1059C400B250225492540259F249624AD24A424B8A
:1059D400B24B4561828001114EC6AA892E854AC800
:1059E40006CE22CC26CA2E89EF60307521C997F4E1
:1059F400FF1F83C4A48B99E0834405001945EFE09D
:105A04002F9A2A8405CD8145194697C0FF1FE78048
:105A1400E0DF930700FD2300F400B947A30034013D
:105A24002301F40023122401A2856244F240424976
:105A3400B2492685D24405616FE06FA5F240624405
:105A4400D2444249B2490561828039715ECEAA8B43
:105A54002E8526DA4ED652D456D25AD006DE22DC11
:105A64004AD8AE84328BB68A3A8ABE8942C6EF607F
:105A7400D06C21CD2A894145EFE08F922A8431C52B
:105A84004146814597C0FF1FE78040D817F5FF1FA7
:105A94000345C58119E103450900930700FD23006F
:105AA400F400BD472301F400B247A300740123129C
:105AB400940023046401A304540123054401A305B1
:105AC40034015CC4A285EFE08F9CF2506254D2543E
:105AD4004259B259225A925A025BF24B2161828096
