:040000006F20C02C81
:100004000000000000000000900000206E070020A7
:10001400A9BDF9F528080020000000000000000038
:1000240028080020900000200000000000000000CC
:10003400900000200000000090000020000000005C
:100044009000002090000020100F0020900000205D
:1000540090000020F8210020900000200000000003
:1000640090000020900000209000002090000020CC
:100074008E08002090000020A4080020900000209A
:1000840090000020900000209000002090000020AC
:1000940001A04111814601468145114506C6EF1074
:1000A4004001B727004011472383E780B7F700E0FA
:1000B400938707D0984B6D9B98CB984B5D9B98CBBF
:1000C4007300501001000100B2404101828001110F
:1000D400814601468145114506CEEF00907DB72744
:1000E400004011472383E780B717004083C6E70227
:1000F40003C5E7041307800893F6C60F136535009C
:1001040093E61600733607801376860832C0010022
:100114000100930570052380B704130680FA238039
:10012400C704010001002382070223800704024858
:100134007328088001000100733807801378880849
:1001440042C2010001002380B7042380C7040100D8
:1001540001002387D7022387A7042380070492463C
:10016400F3A6068001000100F336078093F68608A3
:1001740036C4010001002380B7042380C7040100B2
:10018400010083C6B70493E60602A385D70423803F
:100194000704A246F3A6068001000100B7F600E0BA
:1001A400938606D0884A1365450088CA884A5D99B3
:1001B40088CA730050100100010073370780137759
:1001C40087083AC6010001002380B7042380C704CE
:1001D4000100010003C7B7041377F70DA385E704F3
:1001E40023800704B247F3A7078001000100F2400F
:1001F400056182803971B7F5070022DC81462A84C3
:100204003010E105194506DE02D423160102EF0081
:10021400506AB717004083C6E70203C5E704130713
:10022400800893F6C60F1365350093E616007336FF
:1002340007801376860832C6010001009305700515
:100244002380B704130680FA2380C7040100010049
:1002540023820702238007043248732808800100A0
:100264000100733807801378880842C80100010030
:100274002380B7042380C704010001002387D70229
:100284002387A70423800704C246F3A6068001003F
:100294000100F336078093F6860836CA0100010090
:1002A4002380B7042380C7040100010083D607021A
:1002B40071757D15E98E2390D70223800704D246F9
:1002C400F3A606800100010037F500E0832605D17E
:1002D40093E646002328D5D083D607026575110519
:1002E40093F60660C18EC98EC206C182733507803B
:1002F400137585082ACC010001002380B7042380EC
:10030400C7040100010003C5F70013650504A387B2
:10031400A7002390D70223800704E246F3A60680B1
:10032400010001009166758C1DE87337078013770F
:1003340087083ACE010001002380B7042380C70454
:100344000100010003C7B70413670702A385E7048C
:1003540023800704F247F3A707800100010037F761
:1003640000E0832707D1DD9B2328F7D073005010CA
:100374000100010013078008F337078093F787080B
:100384003ED001000100B71700401305700523801B
:10039400A704930580FA2380B7040100010083D6E3
:1003A400070271767D16F18E2390D702238007040D
:1003B4008256F3A60680010001000DEC7337078016
:1003C400137787083AD2010001002380A704238011
:1003D400B7040100010003C7B7041377F70DA38521
:1003E400E704238007049257F3A707800100010064
:1003F4005145FD2EF250625421618280397152D4EC
:1004040081462A8A01468145114522DC26DA06DE28
:100414004AD84ED637140040EF00B0498347E4026F
:100424000347E4049304800893F7C70F1367370066
:1004340093E71700F3B6048093F6860836C60100E6
:1004440001009309700523003405130980FA230081
:100454002405010001002302040223000404B2461F
:10046400F3A6068001000100F3B6048093F6860823
:1004740036C80100010023003405230024050100CF
:1004840001002307F4022307E40423000404C24701
:10049400F3A707800100010013055002D928B7F71C
:1004A40000E0938707D0984B1367470098CB73B746
:1004B4000480137787083ACA010001002300340539
:1004C40023002405010001000347F4001367070417
:1004D400A307E400230004045247732707800100A4
:1004E400010073B70480137787083ACC0100010038
:1004F4002300340523002405010001002167336A29
:10050400EA0023104403230004046247732707808E
:1005140001000100984B5D9B98CB730050100100C3
:1005240001008146014681451145EF009038F3B43E
:10053400048093F4840826CE0100010023003405CE
:1005440023002405010001008347640493E7170096
:100554002303F40423000404F247F3A707800100F3
:100564000100F2506254D2544259B259225A2161C4
:100574008280011113078008F337078093F78708F7
:100584003EC201000100B7170040930570052380A7
:10059400B704130680FA2380C7040100010083C650
:1005A400B70493F6F60DA385D70423800704924677
:1005B400F3A606800100010093760502D5CEF3363A
:1005C400078093F6860836C4010001002380B7042F
:1005D4002380C70401000100B70614007D89558DEE
:1005E40088C7010001000100010023800704A2461E
:1005F400F3A606800100010073370780137787088C
:100604003AC6010001002380B7042380C704010017
:100614000100010001003727004093061005A303E1
:10062400D78023800704B247F3A7078001000100A5
:1006340093078008F3B7078093F787083ECE01003D
:100644000100B7170040130770052380E704130760
:1006540080FA2380E7040100010003C7B70413678D
:100664000708A385E70423800704F247F3A707805C
:10067400010001000561828093760504BDC6F3364E
:10068400078093F6860836C8010001002380B7046A
:100694002380C70401000100B706140093860604F2
:1006A4007D89558D88C70100010001000100238068
:1006B4000704C246F3A606800100010073370780D1
:1006C400137787083ACA010001002380B704238006
:1006D400C704010001003727004093062005A30347
:1006E400D78023800704D24781B7733707801377F5
:1006F40087083ACC010001002380B7042380C70493
:100704000100010098471367070C98C7238007046A
:10071400E24719BF0111814601468145114506CEC4
:10072400EF00301993078008F3B7078093F7870821
:100734003EC601000100B71700401307700523806F
:10074400E704130780FA2380E7040100010003C7CC
:100754006704136717002383E70423800704B24761
:10076400F3A7078001000100F24005618280411176
:100774008146014681451145EF00B01313078008F7
:10078400F337078093F787083EC401000100B717C9
:100794000040130670052380C704930680FA238063
:1007A400D70401000100FD552396B70223800704F6
:1007B400A245F3A505800100010073370780137774
:1007C40087083AC6010001002380C7042380D704A8
:1007D4000100010003C76704136717002383E704BC
:1007E40023800704B247F3A707800100010001A09A
:1007F400BD473305F50201007D1575FD8280411169
:1008040022C426C206C6AA84014463179400B240D7
:10081400224492444101828005041305803E42042F
:10082400C13F4180DDB700009305000273A04580FD
:1008340082457390153492402242B2424243D243DD
:100844006244F244025592552256B2564257D25748
:100854006258F25806499649264AB64A464BD64B40
:10086400664CF64C065D965D265EB65E465FD65FC8
:100874000961730020304111B7170040985F3AC6F0
:10088400945F3247E39CE6FE324541018280B7170C
:100894000040130700032388E702854723A8F18457
:1008A40073002030411122C626C44AC2972000E0BA
:1008B400E780C01EC167E98F2A8493740540638F63
:1008C40007269377150099C703C51186972000E082
:1008D400E780E002B70704003377F40063090710E8
:1008E40093876708E18F95CB83C7E18503C7D185DB
:1008F4009386E18563F2E70A03C7060093071700AE
:1009040093F7F70F2380F6009387C198BA9703C52E
:100914000700972000E0E78080FE9DC037050010A7
:1009240013050540972000E0E780A0188D47238C2D
:10093400F184054523810186972000E0E78000F6D5
:100944009377041099CF13050010972000E0E780F7
:1009540040160545972000E0E78040F49547238C36
:10096400F1849377042091CB13050020972000E0B5
:10097400E78020149147238CF184056513050580D5
:10098400B377A40063820722972000E0E780601217
:100994009947238CF18409AC83C7018689CB05452B
:1009A40023810186972000E0E78040EFBDB78547AB
:1009B400814513050040A38FF184972000E0E78070
:1009C40020F2814513050020972000E0E78040F1E4
:1009D400814513050010972000E0E78060F005458D
:1009E400972000E0E78060E9238101863DB7937793
:1009F400240089CB83C7D185E1C30545972000E056
:100A0400E780E0EB937704049DCB03C9E18593076A
:100A14001900238FF184972000E0E780E0EE9387AC
:100A2400C198CA972380A70003C7D18583C7E185EE
:100A340063FDE7080545972000E0E78040E8E3818F
:100A440004F03705001013050540972000E0E78007
:100A5400400683C4E18593871400238FF184972093
:100A640000E0E78060EA9387C198A6972380A700F7
:100A740083C70186E39F07EA854781451305004044
:100A8400A38FF184972000E0E78080E5814513057A
:100A94000020972000E0E780A0E4814513050010C2
:100AA400972000E0E780C0E30545972000E0E78059
:100AB400C0DC2381018669B50145972000E0E78009
:100AC40000E08547A38CF18435BF0145972000E001
:100AD400E780E0DE9387918503C7070021CFA38CCD
:100AE400018483C7018689CB0545972000E0E78010
:100AF400E0DA23810186A1B78547814513050040CB
:100B0400A38FF184972000E0E78080DD8145130501
:100B14000020972000E0E780A0DC81451305001049
:100B2400972000E0E780C0DB0545972000E0E780E0
:100B3400C0D4C1B705472380E70011B793772500D8
:100B440095CBB707040093870708E98F138721869D
:100B5400DDC391472300F700238E0184A38D018414
:100B640083A7418581CB9C4391C79385B185138528
:100B7400C1968297B7070400E18FE1C70545972026
:100B840000E0E780C0D3B5CC37050010130505405D
:100B9400972000E0E780E0F10545972000E0E7803A
:100BA40000D20144238101868567E18F89CB0565E5
:100BB400972000E0E780E0EF9D47238CF184916764
:100BC400E18F89CB1165972000E0E78080EEA14793
:100BD400238CF184A1677D8C09C82165972000E0EE
:100BE400E78020EDA547238CF1843244A2441249C6
:100BF4004101730020308D472300F700238D0184C9
:100C040095BF93774408E38D07D283C7C18503C793
:100C1400B1859386C1851305F00F63FFE70003C711
:100C240006009307170093F7F70F2380F6009387C6
:100C3400C196BA9703C50700972000E0E78020CC4F
:100C440001B393770404A1C383C6A185FD47138729
:100C5400A185014563E5D7028347070013F9F70F20
:100C6400850793F7F70F2300F700972000E0E7804C
:100C7400A0C99387C194CA972380A70005459720EC
:100C840000E0E780C0C3937704018DC73757004065
:100C94008357078093E717002310F78083A74185C4
:100CA40081CBDC4391C783C5A1851385C194829709
:100CB400238D0184E38604C837050010130505401D
:100CC400972000E0E780E0DE0545972000E0E7801C
:100CD40000BFBDB1411122C426C21384818606C659
:100CE400971000E0E780207483470400054793844D
:100CF400E186850793F7F70F2300F4006398E70074
:100D0400971000E0E78000692390A4008347040063
:100D14001307800CB3F7E70239472300F400B71731
:100D24000040238CE704971000E0E780607283970B
:100D34000400B24022443E959307A0413305F502D6
:100D440093070020924441013345F502FD779387D0
:100D5400273B3E9542054181828001112306A10073
:100D6400A306B10005476C0085460946654506CED5
:100D7400972000E0E780003BF2400561828001118A
:100D840022CC26CA2E84B284A307A100014785463B
:100D940005469305F100654506CE972000E0E780FF
:100DA400603819C57D55F2406244D24405618280A1
:100DB4001307400685462686A2856545972000E0F0
:100DC400E780A04365F10545F9BF411106C619370F
:100DD400A9473355F50242054181972000E0E78099
:100DE400E05EB24097170000A386A74E41018280BF
:100DF4000111654506CE22CC26CA4AC8972000E0D8
:100E0400E780A02C8D4513052002813F1304803E0A
:100E140005462C00130570029D3783478100858B9E
:100E240089E77D144204418065F419462C001305BA
:100E34008002B137831781008314A1000319C10014
:100E440013D5274089841359294063CB070A97D0C7
:100E540001E0E780E01E9715000083A5A55B97D00D
:100E640001E0E78040EB97D001E0E78040181314DD
:100E740005014180268563D404003305904097D052
:100E840001E0E780E01B9715000083A5A55897D0E3
:100E940001E0E78040E897D001E0E7804015931433
:100EA4000501C1804A85635409003305204197D068
:100EB40001E0E780E0189715000083A5A55597D0B9
:100EC40001E0E78040E597D001E0E7804012931706
:100ED4000501171700001307673FC183A3058700A7
:100EE400A308F7002180A183230687002317970016
:100EF4002309F700F2406244D244424905618280EA
:100F04003305A040A9B7411106C6EF005006F5BF4E
:100F1400411122C6371400408357E409056726C4EB
:100F2400F98FA1CF1545EFF09F8D1304440C1C409D
:100F34000567F98F1387C18685EB03450700A14533
:100F4400973000E0E780C0E78D450565972000E015
:100F5400E780C08AB71700400567239FE70832443B
:100F6400A24441017300203003450700C145973076
:100F740000E0E780E0E48945C9BF8357E40993F7BB
:100F8400074085CF9305000203C5C186973000E072
:100F9400E78000E39307440C8C431305004093F56A
:100FA400054093B515008905972000E0E78000858A
:100FB40093070040231FF4085DB78357E409856451
:100FC40093840480E58FC1DF9305000203C5C186C5
:100FD400973000E0E780C0DE9307440C8C432685FD
:100FE400E58D93B515008905972000E0E780008121
:100FF400231F9408ADB72303048015472303E4801B
:1010040001002302A480828083076480E3CE07FE6C
:1010140023030480828083076480E3CE07FE0345B4
:101024004480828083076480E3CE07FE2302A48089
:101034008280411126C44AC24EC006C61377F50BFE
:10104400AD47AA892E8995446306F700194565378B
:10105400653F8D444E854537FD59FD146398340131
:10106400B240A244124982494101828013550901C8
:101074001375F50F453F2209CDB7011126CC06CED5
:10108400B704080051371545BD37713769372AC68B
:10109400A53F32459377150089EB13651500137549
:1010A400F50FF240E24405618280FD14E9FC01453C
:1010B400CDBF397126DC4ADA4ED852D656D45AD22C
:1010C4005ED006DE62CE66CCB7E700E07D5783AA29
:1010D400070022C603AA470023A0E71823A2E718A3
:1010E400B7170040130770052380E704130780FA3D
:1010F4002380E70483C74704930B75FFB684E20794
:1011040093FBFB0F8546AA892E8B32893724004036
:10111400E187015763FA76016308D500894613070E
:1011240000026313D5000157D98F93F7F70FB71C4B
:1011340000402382FC0411472303E4801305F00FCD
:101144005D3D094CD135636D7C11B7050700DA9517
:1011540037870700795563F2E504B3879500636E1A
:10116400F702370B0800A94733EB65016399F906C9
:1011740089E48144513D26850DA0DA850945553D14
:1011840005090345F9FFFD14050B693D81C49377F7
:10119400FB0FFDF7DD3569FD7D55B71700401307DB
:1011A40070052380E704130780FA2380E70403C74C
:1011B4004704418B2382E704F250B7E700E023A001
:1011C400571123A24711E25432445259C259325A98
:1011D400A25A125B825B724CE24C21618280A54769
:1011E4006395F90685691309F00FB3069900B37482
:1011F4002B01B6941349F9FFB3749900856B3379C5
:101204006901416B9387F9FFB3F7270199E363FC05
:10121400340193D94900C147E3E637FF99BF056913
:10122400C1697D19D9B71305800D63886901130558
:1012340000026384790113051008CA85DD3B353D3E
:1012440021DD4E99B3843441D9B7DA852D45D533A0
:10125400CA94E30099F205097D3BA30FA9FED5BF0B
:101264009387F9FF93F7F70F6361FC0C83C71C04A2
:1012740013073008631FF70437070800636BEB0498
:10128400B3079B00B706100063F5D704334BEB009C
:1012940089476393F9068980D549E38C04ECDA85A0
:1012A4000945413B11090327C9FF91472320E480E5
:1012B40003076480E34E07FE23033481FD17EDFB2F
:1012C400FD14110B81C49377FB0FE9FF7D3371F596
:1012D400E1B5B717004003C75704B70708001377F1
:1012E400070219E3B78707007955E378FBEA330768
:1012F4009B00E3FFE7F855B58547E382F9F2DA8509
:101304002D45053B9389F4FFE38504E6293393F7E0
:10131400390091EB832604800327090093074900D1
:10132400E39AE6E43E89CE84F1BFB5476396F900BB
:101334001305900BC93135BDB1471305B00AE38BD2
:10134400F9FE99476391F904B7050800B365BB003A
:101354002D45C53181448D4BA1497539639674017E
:10136400832704802320F9008504E39834FF83272E
:10137400048013172B01635507002312F900D5BB12
:101384002322F900FDB39D476399F90281451305B2
:10139400B0044531BD442320090023220900FD592E
:1013A4009D3993F77400CA9703C70700FD14398D5C
:1013B4002380A700E39634FF6DBBA1476392F90431
:1013C4006D398144630D0B008D479304C00363089A
:1013D400FB009304000563048B019304400413751C
:1013E400C507E30895D819453931393905452131FF
:1013F40026850D3909453D314931E31C05D669BBC4
:1014040091476399F90013056006F536F53E130517
:1014140090090DB7E38F09D4F154A9BBB7C70040B5
:1014240003A7C72023A607200F10000001C599C1F8
:10143400814711E6B7C7004023A6E7208280B38620
:10144400F50003C80600B306F500850723800601EE
:10145400E317F6FEC5B737C700408327C720232606
:1014640007200F10000019C191C111E637C70040D1
:101474002326F7208280910503A7C5FF11057D1659
:10148400232EE5FEDDB737C700408327C720232678
:1014940007200F10000001C53307C50011E637C748
:1014A40000402326F72082800505A30FB5FEE31D27
:1014B400E5FEF5B7B7C7004083A6C72023A60720DB
:1014C4000F10000081473307F5000307070019E7F1
:1014D40037C700402326D7203E8582808507E5B79D
:1014E400011126CA4AC8B7C7004006CE22CC83A43D
:1014F400C7202A892E8623A607200F100000131563
:1015040006019305F004418132C6EF0090222A843B
:1015140001C53246CA8519372285F2406244B7C7ED
:10152400004023A697204249D24405618280B7C770
:10153400004003A7C72023A607200F10000001C501
:1015440099C1814711EAB7C7004023A6E7200545A2
:1015540082808507E309F6FE3308F500B386F500BB
:101564000348080083C60600E305D8FEB7C7004059
:1015740023A6E72001458280B7C7004003A7C72000
:1015840023A607200F1000009307F6FFBE952A96A6
:101594006317C500B7C7004023A6E7208280FD1566
:1015A40083C715000505A30FF5FEDDB737C7004057
:1015B4008327C720232607200F10000001C5330707
:1015C400C50019E637C700402326F720014582806D
:1015D40005058346F5FFE397B6FEE31BE5FE37C733
:1015E40000402326F7200545828079719737000053
:1015F4009387078422D4804306D626D24AD04ECE7F
:1016040052CC56CA5AC85EC679C0B7C4C901014B88
:1016140097390000938949819384F437173A00007D
:10162400130A4A81972A0000938ACA7B173900005B
:101634001309C9848357240095E35C44631D0B009C
:10164400172700002326F77E832BC4002285EF0092
:10165400301D5E84B9A82326FB00FDB783A70900CB
:1016640082971C443307F5406376F500032749004D
:101674001D8F2A9763E2E4089727000023AC0776BE
:101684008355240003450400972000E0E78040735D
:101694005C405844A1CB0C4403264900AE97BE8657
:1016A40063E4B70063E4C700B386C74014C4228B65
:1016B4003A8449F0972700009387C7729C4B0547EB
:1016C4006372F706FD17172700002325F772B2503F
:1016D400225492540259F249624AD24A424BB24BC2
:1016E4004561828063170B009727000023A2E774EB
:1016F400A1BF2326EB0089BF03274A0209CF63EF6A
:10170400A7003385A74083A70A016376F5009727CE
:10171400000023A1A76E228B404461BF0327490028
:10172400BA97C5B79727000023A6076C4DB797272C
:101734000000938727749C4385C3411106C6829792
:101744009727000083C7276E89E79727000023A304
:101754000772B240410182809727000083C7A76CBB
:1017640091E79727000023A70770828082804111A8
:1017740022C4172400001304A4691C4006C626C210
:101784004AC091C782979727000023A307685C404B
:1017940091C382971C40639C071C173700000347C2
:1017A400D7879547973400009384C4866301F71C58
:1017B4009727000083C7476D8DE383C75400858B4B
:1017C40089CF83C774001947631CF70E973700004D
:1017D400A384078499265C4482971C4491C382970E
:1017E400172900001309896403270900172600003C
:1017F4000346565F9727000083C7C75E939617007A
:10180400BA9683D60600E9CA9727000083C7875D86
:1018140063EEC70C972700002386075C1C4063987F
:10182400071483C7740015476303F7149727000050
:1018340083C7D77E91CF83C7740093F7F70F89EBE3
:1018440097270000A38C077C971001E0E78040C431
:10185400972700009387475D9C43638A0710972767
:1018640000009387A761DC43172700002324F7585F
:10187400AD3B972700009387E75BDC53EDCB83C731
:10188400740015476365F70E9727000083C7477DEB
:10189400918BF1EF9727000083C7E758E9EB032604
:1018A40009009726000083C6F65363C8D70C224468
:1018B400B240924402494101173300E06700A3A6F5
:1018C40083C774001D47E31AF7F097270000A38528
:1018D4000774A1241C4809B7850793F7F70F9726C7
:1018E40000002381F650E3E7C7F039BF86073E972F
:1018F40083550700231007009727000023940752FD
:1019040097270000938787509C43172500000345C1
:10191400654D13172500BA979C43829797270000BB
:1019240083D74750172700000347C74B93C7F7FFD8
:101934007D8D93171700032709003E9783570700EF
:101944005D8D2310A7009727000083C7A74991C77F
:101954008507172700002307F748172700000347C8
:1019640067489727000083C7F747E375F7EAB24053
:10197400224492440249410182801397170032970E
:10198400035707006DF785070DB737C70040832657
:10199400C720B707FCFFFD17F58F2326F7200F108C
:1019A4000000972700009387E743C84F83278726C3
:1019B4002326D7206A0593C7F7FF99835D8D82801C
:1019C4000111972700009387E77422CC03A4870BA7
:1019D40026CA06CE2AC42EC6854419E40145F2401F
:1019E4006244D24405618280834791000347140016
:1019F400858B6304F7000044CDB719469305A10015
:101A0400130524002D36E31895FE0545C9BF172795
:101A140000001307675F1443411122C49C5E4AC04F
:101A240006C6998326C2858B3A84172900001309B8
:101A3400695DD1CB930700069CDE1727000003479E
:101A4400C75D93070008972400009384A45C631B7C
:101A5400F700832709009C4393F707041727000026
:101A6400230DF75A83C7040093F707049DC39727F0
:101A740000009387673B9C4382979727000023A32A
:101A8400A75A83C7040093F7F70B17270000230313
:101A9400F75883C7440093F7070495E7854717274A
:101AA4000000A30BF75697270000938767589C43C1
:101AB4003707020098C7130700FC97260000238D00
:101AC400E654D844F8D318401C5F9183858B8DC3AA
:101AD4001C5F93E707011CDF972700009387475596
:101AE4009C4323A207068547172700002306F752C5
:101AF40083270900D8430583058B19C7D843759BF1
:101B0400D8C3D843799BD8C3B240224492440249F3
:101B140041018280ED3D73002030972700009387B8
:101B240027519443972700009387C74E03C70700A4
:101B3400058B11CB972700002380074E97270000C1
:101B4400A38C074C828003C71700058B65F7F852F6
:101B540071FF83C75700DDB7172700001307C74A73
:101B640003280700832788039583858BADEF11C66F
:101B740083270803BD832300F6009DC61C43985B9E
:101B84004607935767016356070093E707C0C207E8
:101B9400C18303970600C207C18709C7BA970947DB
:101BA400B3C7E7022390F6008DCD8345150095C990
:101BB4009727000083C7674693F7070413879500A8
:101BC400894585C33A95834705000547994593F6AA
:101BD400F7066398E600E207E187814563D30700CF
:101BE400B9452E8582808545EDBF411122C406C6C4
:101BF400172400001304C443184049E9AE87745302
:101C0400FDFE3E85B2859727000023860740970096
:101C140001E0E780C06E972700009387E73E9C436E
:101C2400B70680009843558F98C3D857719BD8D76F
:101C340097270000A382073E97270000A38C073C48
:101C44001C40094798C3B7F700E003A707D16D9B71
:101C540023A8E7D003A707D15D9B23A8E7D073008F
:101C640050101440172700001307C73A8347270072
:101C7400858B89EB83473700858BC1C39727000089
:101C8400238C0738B2402244410182808D4763107F
:101C9400F50297270000938727379C43B7068000F7
:101CA4009843558F98C3D857719BD8D75DBF854744
:101CB400E319F5FA54478177FD17F58F5CC70F10C8
:101CC40000001840B70702001CC7930700F8172646
:101CD40000002303F634972700009387E7329C43E0
:101CE4009C439D83858B6397A700930760197CD3DE
:101CF40054C785BF9307E01BDDBFFC52A5FB59B752
:101D0400411122C417240000130484321C4006C667
:101D1400D8479316D70063D6060298479316D70080
:101D240063D106027D57B8D7172700001307870B26
:101D3400584F05079726000023A4E60C3707040034
:101D440098C798470D83058B1DC3172700000347C9
:101D5400872C1367170097260000238EE62A1307A3
:101D640000F8972600002389E62A214798C7984758
:101D7400058B09CF172700000347D72913671700DE
:101D840097260000A388E628054798C79847098343
:101D9400058B09E798470583058B31C31727000096
:101DA400A30C07269847972600009386A626098346
:101DB400058B6302071003C70600136717009726F5
:101DC40000002389E624114798C71727000013074A
:101DD400A7231443D856719B13671700D8D6984786
:101DE4009316F70063D606029726000083C6C63909
:101DF400C18A172700001307E731E1CA03474707E1
:101E040013670702972600002380E638416798C7C6
:101E140098479316E70063D206021727000003478A
:101E2400A71F6207618763570700054797260000CD
:101E34002384E61E3707020098C798479316C70005
:101E440063D706029726000083C61634858A1727AF
:101E540000001307272CC1CA03475707136727003D
:101E640097260000A382E6323707080098C79847F0
:101E74009316B70063DD06023707100098C797274B
:101E8400000083C7670085C7172700000347F718BA
:101E94009547630EF70097270000938727169C4306
:101EA40091C382971840B7071F00BD075CC7B240B3
:101EB40022444101828003C7360013671700972626
:101EC4000000A38AE614094701B783464707094679
:101ED400BD8A6388C600034747078D463D8BE317D9
:101EE400D7F2114705B783465707918AB5DE0347F2
:101EF400570713678700ADB79727000093874713E9
:101F040098438967938707F47CD3972700009387C6
:101F140067179C4383A60709139656006358060067
:101F240083A6070913966600634406007453FDF202
:101F34008280411122C4B7C7004006C603A4C7204B
:101F440023A607200F10000011C199E5B7C7004070
:101F540023A6872001457DA893073500C207C183C6
:101F6400F19BC207C183130740036369F702172774
:101F740000001307E7190843172700001307C718C1
:101F840014436392A602172700001307A7EA185BFD
:101F940055DFC207DD8D054502974DBF17270000A9
:101FA4001307C716C9BF035765002DEB0357450038
:101FB4006366F706B306F7402146637CD60203281E
:101FC4000500938687001D8FAA96611717260000C7
:101FD4000356A6E12392E60023A0060123930600FC
:101FE40014C12312F500130786FF97260000239ED1
:101FF400E6DE2313B5009725000083D505DFB387FC
:10200400F540172700002312F7DEB7C7004023A6C8
:1020140087202105B240224441018280084195B7BE
:10202400B7C7004003A8C72023A607200F1000004D
:1020340001E523A607218280972700009387470D97
:1020440003AE0700972700009387070C03A307003C
:102054008146F28763F0670C83A80700636FF50A73
:1020640063EDA80A138787006366E50A03D6670051
:10207400216705076317E60003C7C18E050723869A
:10208400E18E972500009385E5D503D6470003D755
:102094006500239307003297420741831725000008
:1020A4002315E5D4638AC703172500001305050625
:1020B40008416303F50203D5660019ED83D7460092
:1020C40023A0160121073E9621062392C6009727D6
:1020D4000000239CE7D0B6879843630D67029726D8
:1020E40000009386A60294426306D70283566700D3
:1020F40095E283D64700035647001843A106B296DB
:102104002392D70098C383D76500A107172700003F
:10211400231DF7CCB7C7004029BFBE86C6871DBFA5
:102124000111972700009387E7FE22CC03A4070C34
:1021340026CA4AC84EC606CEAA8413092500854974
:1021440015C083C7140003473400858B6304F7006C
:10215400405CFDB71946930544004A85EFF02FBD56
:10216400E31835FF2285F2406244D2444249B24921
:10217400056182804111972700009387A7F922C443
:1021840003A4070C26C24AC006C6930425000549C9
:1021940001E82285B24022449244024941018280EE
:1021A400A6851305A40297B001E0E780A02EE30200
:1021B40025FF405CF1BF411197270000938787F505
:1021C40022C403A4070C26C24AC006C693042500F1
:1021D400054901E82285B240224492440249410162
:1021E4008280A6851305A40197B001E0E780802AC8
:1021F400E30225FF405CF1BF197106C212C416C682
:102204001AC81ECA22CC26CE2AD02ED232D436D612
:102214003AD83EDA42DC46DECAC0CEC2D2C4D6C602
:10222400DAC8DECAE2CCE6CEEAD0EED2F2D4F6D6F2
:10223400FAD8FEDA938581848841E700050092404C
:102244002242B2424243D2436244F244025592557E
:102254002256B2564257D2576258F2580649964906
:10226400264AB64A464BD64B664CF64C065D965DFE
:10227400265EB65E465FD65F0961730020300000BB
:10228400EFF0EFCA73000000000000009722000086
:10229400938262B90383020023800200630F030068
:1022A400F32510342EC0970500009385A5FD739087
:1022B4001534EFF0FFA47300203086DCEFF05FA448
:0822C400E650828000000000DA
:1022CC009711002093814190174100201301C152B6
:1022DC001305400097E5FF1F938505D217060020D4
:1022EC00130606FE63FAC5008322050023A05500E1
:1022FC0011059105E3EAC5FE17C501001305455309
:10230C00970500209385C5FB1386418463FAC500AD
:10231C008322050023A0550011059105E3EAC5FEB3
:10232C001385818497250020938585F06377B5000C
:10233C00232005001105E36DB5FEFD42739002BC30
:10234C008D4273904280930280087390023097E222
:10235C00FF1F938262CA93E232007390523097123D
:10236C0000009382425173901234730020302A8300
:10237C0009CA83830500230073007D1605038505B8
:10238C006DFA8280B717004083C5870503C897058F
:10239C0003C7970593F5F50F1378F80F13678700AC
:1023AC00A38CE70403C797051377B70FA38CE70437
:1023BC0003C7A70513671700238DE70437170040E1
:1023CC008347A705858BEDFF0565C1463717004090
:1023DC009308F5FF0346A70513661600230DC704E3
:1023EC000346A705058A6DFE0356C705FD16C206F2
:1023FC001346F6FF33761601C182B297E1FEA107B0
:10240C009183130505801D8DA30C07054205230C34
:10241C00B70441858280B717004003C7770513774F
:10242C00E70FA38BE7043947238CE7040D47A38CF4
:10243C00E70403C7A7051377D70F238DE704828022
:10244C00371700408347A70593E71700230DF704C0
:10245C008347A705858BEDFF0355C70552055181B1
:10246C008280B717004003C7E7040D894111137729
:10247C00C70F498F93068008F3B6068093F686083B
:10248C0036C601000100930670052380D70493061D
:10249C0080FA2380D704010001002387E7042380FE
:1024AC000704B247F3A707800100010041018280B5
:1024BC0041112A830148930E407E130F0019930F8C
:1024CC0040069318030193D8080163EF1E01130310
:1024DC000019337365028542FD4363F0B20A8D4FD8
:1024EC00214F930E400689A87D13336EE3039308A6
:1024FC00E016630E0E00336EF3039308D0166308D8
:10250C000E009378330093B818009388D816C298AD
:10251C0013980801135808016DB793F81500138E22
:10252C00F5FF6371BF04F908C2981398080193155D
:10253C000E0113580801C181E391F5FF8545630B2A
:10254C000300B378D5038145638608009375350085
:10255C0093B51500F105C2951398050113580801A0
:10256C008945D9BFB3881341C298139808019315B4
:10257C000E0113580801C1818DB77D16329879462A
:10258C003307C70213D61700BE07420813580801B9
:10259C0032976146B3F6C60213068070B386C60244
:1025AC003697A166F58F4207D98FB716004003C73F
:1025BC00F60213770708A303E1000346710003C773
:1025CC00F60213770708E314E6FE03477100B7160B
:1025DC0000405DCF13078008733707801377870897
:1025EC003AC4010001003717004093067005230020
:1025FC00D704930680FA2300D70401000100232A94
:10260C0007038346170393E60608A308D7022300A3
:10261C000704224773270780010001001166371752
:10262C0000407D16545B4C5FAD8EF18EE5FE93063B
:10263C008008F3B6068093F6860836C601000100C2
:10264C00930670052300D704930680FA2300D70461
:10265C00010001005CDB8347170393E70704A30821
:10266C00F70223000704B247F3A70780010001001B
:10267C004101828003C7F60213770708A303E10028
:10268C000346710003C7F60213770708E314E6FE4E
:10269C000347710065D33DBF4111B7170040985FE8
:1026AC003AC6945F3247E39CE6FE32454101828094
:1026BC00914763EAB70897C70100938767AB8A0510
:1026CC00BE9598413E97B71700409387470B0287FA
:1026DC0094431345F5FF37170040E98E94C39306D6
:1026EC00070B9C42E98F9CC29307070A9843798D8C
:1026FC0088C3828090439346F5FF37170040758E50
:10270C0090C31306070B1C42C98F1CC29307070A00
:10271C009843F98E94C38280944337170040C98E36
:10272C0094C39306070B9C421345F5FF65BF944376
:10273C001347F5FF758F98C3B71700409387070AA7
:10274C009843498F98C382809843498FEDB791473E
:10275C0063EAB70897C701009387C7A28A05BE959D
:10276C0098413E97B71700409387470D02879443D3
:10277C001345F5FF37170040E98E94C39306070DF8
:10278C009C42E98F9CC29307070C9843798D88C3B0
:10279C00828090439346F5FF37170040758E90C3A7
:1027AC001306070D1C42C98F1CC29307070C9843D4
:1027BC00F98E94C38280944337170040C98E94C31A
:1027CC009306070D9C421345F5FF65BF94431347D1
:1027DC00F5FF758F98C3B71700409387070C984384
:1027EC00498F98C382809843498FEDB79357E50082
:1027FC0093F70730C98FC2070947C183638BE50480
:10280C006362B70213C6F7FF9DE937170040835682
:10281C006709F18E231BD7081307C70C1443C98E05
:10282C0014C321A00D47638CE50237170040231F0A
:10283C00F70883562709D58F2319F7088280371795
:10284C00004083566709F18E231BD7081307870CAA
:10285C00F1B73717004083566709DD8E65BF371710
:10286C00004083566709DD8EC5B737570040835744
:10287C00078011C593E707102310F7808280C207E9
:10288C00C18393F7F7EFC207C183FDB737570040F9
:10289C008357078011C593E707202310F7808280A8
:1028AC00C207C18393F7F7DFC207C183FDB7375760
:1028BC0000408357078011C593E707402310F7802A
:1028CC008280C207C18393F7F7BFC207C183FDB7EC
:1028DC0037570040835747804205418189C5C98FCE
:1028EC002312F78082801345F5FFE98FD5BFB757C8
:1028FC0000402398A7808280B757004003D50781FA
:10290C001375F50F8280375700408357078011C528
:10291C00A166D58F2310F7808280C607C583DDBFE3
:10292C00011126CAB754004052C43E8A83D7048092
:10293C004EC6BA892167D98F06CE22CC4AC856C258
:10294C005AC02390F4802A8901452E84328BB68A92
:10295C005D3FB52E37480F00130808243358050384
:10296C0083D74480C207C18393F707FCC207C18396
:10297C002392F48083D74480B3E70701C207C18355
:10298C002392F48083D70480C207C183F99BC207CA
:10299C00C1832390F480E1679387076A63E4870A15
:1029AC0006043354850285671387C7FF114642041A
:1029BC004180618F01C7FD173376F400050893073A
:1029CC00F00363F407011308F0034208B757004003
:1029DC001358080123900783B7550040239EC580E8
:1029EC0083D70580F240624493E717002390F5806B
:1029FC0083D70580D244024BC207C18393F757BFDC
:102A0C00C207C1832390F58003D50580336555013A
:102A1C0033652501420541812390A58083D78580AC
:102A2C002394058083D685804249924AB3E74601B8
:102A3C0033E73701420741832394E580B249224AA8
:102A4C0005618280631A0B028D45B305B402B35540
:102A5C00B502D205D1812E8691E10546420641820E
:102A6C00A1675D8E9307C0123308F8029307803E6E
:102A7C003358F802050891BFE5473304F402916717
:102A8C0033568502520651825D8ED9BFB75700402E
:102A9C0003D7478103D587814205598D22052181B2
:102AAC0082801345F5FF42054181B7570040239AB8
:102ABC00A7808280797122D43714004026D24AD064
:102ACC00035924028354040206D64209C2044ECE92
:102ADC0052CC56CA13590901C1802DE11379F9F76B
:102AEC0093F4F49F4209C20413590901C18093075E
:102AFC008008F3B7078093F787083EC401000100F4
:102B0C00930770052300F404930780FA2300F40460
:102B1C000100010023112403231094022300040458
:102B2C00A247F3A7078001000100B250225492542F
:102B3C000259F249624AD24A45618280B7F50700D0
:102B4C0081463000B105194597E0FF1FE780E0553D
:102B5C0022478967F98FF1FB1369090893E4044054
:102B6C0093098008F3B7098093F787083EC00100EA
:102B7C000100930A700523005405130A80FA230000
:102B8C0044050100010023112403231094022300A7
:102B9C0004048247F3A7078001000100294597E050
:102BAC00FF1FE78060C4F3B9098093F989084EC20E
:102BBC00010001002300540523004405010001001D
:102BCC008357040293E707202310F4022300040424
:102BDC00924781BF411131E593078008F3B7078015
:102BEC0093F787083EC001000100B7170040130798
:102BFC0070052380E704130780FA2380E7040100A3
:102C0C00010003C7E70093C5F5FF6D8F2387E7002D
:102C1C00238007048247F3A70780010001004101CC
:102C2C00828013078008F337078093F787083EC22A
:102C3C0001000100B7170040130870052380070539
:102C4C00130580FA2380A7040100010083C6E70066
:102C5C00CD8E93E606042387D70023800704924683
:102C6C00F3A6068001000100F336078093F6860870
:102C7C0036C401000100238007052380A70401004E
:102C8C00010083C6F70093F6C60FA387D7002380F5
:102C9C000704A246F3A606800100010073370780E3
:102CAC00137787083AC601000100238007052380AB
:102CBC00A7040100010003C7F7007D163336C000DE
:102CCC00518FA387E70023800704B247A9B7B71732
:102CDC00004098479317070113770704C18309EB4A
:102CEC00FD8B3755E801130505803345F5028280CD
:102CFC0013F7070C930600046316D700FD8B3745BA
:102D0C009C1CD5B72165130505D0828037E700E000
:102D1C001C435443A183E206D58F1CC1FD572320CD
:102D2C00F7182322F718828013178500B7E700E005
:102D3C0023A0E710618123A2A7108280B7F700E0DF
:102D4C008847CC47828041119397050122C406C65F
:102D5C0026C2C1872E8463DE0700EF00704819C1BC
:102D6C00EF00B03C2165218DB240224492444101D8
:102D7C00828093F7150013C51500FDF7916433F5A8
:102D8C0095007DD113060064916503C5C184EF10D5
:102D9C000019258C131504014181F9B71D714946A1
:102DAC0097B501009385453F17B5010013050566DE
:102DBC0086CEA2CC97E0FF1FE780E07611E101A060
:102DCC0037F700E0795610CBFD5654CBB7E700E04F
:102DDC00056423A087109306F00214C323A0871860
:102DEC000100010017F7FF1F1307C74923A4E18453
:102DFC004157A38AE7401306C0038145480897E072
:102E0C00FF1FE780C06797F7FF1F9387E7773ECADE
:102E1C00896793870780231CF100ED472312F10289
:102E2C009547A301F10285472303F102930754D17F
:102E3C002314F102B7F5070097070000938747F0BA
:102E4C003EDA814697070000938727167000E1054C
:102E5C0019453EDC97E0FF1FE7802025B2473ED6A0
:102E6C00835701012318F102D24789C78357810187
:102E7C0063F3870001A04808EF10607811C101A02E
:102E8C00F640664425618280411117050000130548
:102E9C00C5EB06C6EF10E0722386A184B120B240C8
:102EAC00410179A2411193078008F3B7078093F78A
:102EBC0087083EC601000100B717004013077005D4
:102ECC002380E704130780FA2380E7040100010044
:102EDC00C8DB23800704B247F3A707800100010079
:102EEC0023A8018441018280797106D613078008DA
:102EFC00F337078093F787083EC401000100B7172A
:102F0C000040930570052380B704130680FA2380D4
:102F1C00C7040100010083C6F70293F6D60FA387FE
:102F2C00D70223800704A246F3A606800100010005
:102F3C0073370780137787083AC601000100238096
:102F4C00B7042380C7040100010003C7F70213670D
:102F5C005700A387E70223800704B247F3A7078033
:102F6C00010001008147014781460546854513054F
:102F7C00407EEFF0EFD308084146814597E0FF1FF4
:102F8C00E780E04FB707C0A83ECAB78732003ECCF7
:102F9C00080897E7FF1F9387878D3EC8EF10D01363
:102FAC00B25045618280011122CC06CE93074003BA
:102FBC001304C5FC63E7A7003704C0A81304C4FCC2
:102FCC002A946800A133EFF02FEDB307A440637689
:102FDC00A400B707C0A8A297898F3747F6A6938796
:102FEC00F7FD1307F7C5637AF700324509442D3B0B
:102FFC00F240228562440561828022856535324526
:10300C00253303A401851DE01165690597D0FF1FC9
:10301C00E780C01D0545EFF0CFC4EFF0EFE72AC401
:10302C00EFF08FE7A247E30DF5FED9B70D44C9B712
:10303C00411113078008F337078093F787083EC4C4
:10304C0001000100B7170040930570052380B704F9
:10305C00130680FA2380C7040100010083C6E70031
:10306C0093E686002387D70023800704A246F3A6A5
:10307C0006800100010073370780137787083AC672
:10308C00010001002380B7042380C7040100010064
:10309C0003C7170313670702A388E70223800704FB
:1030AC00B247F3A7078001000100B7E700E037073C
:1030BC00001023A0E710410182802381018605477F
:1030CC002380E186A38F0184B72506004111AA87CE
:1030DC001167930600401166938505A8014506C645
:1030EC00EFF01F84854513050040EFF06FFE85451A
:1030FC0013050020EFF0CFFD854513050010EFF010
:10310C002FFDB240B7E700E03707004023A0E710DF
:10311C0041018280011126CA06CEB68422CC4AC84F
:10312C004EC69306000263E0C60C83C621862A8431
:10313C0013892186795599E209EA0145F2406244E6
:10314C00D2444249B2490561828089462300D900A4
:10315C002380E186238C01841385C198A38EC184BE
:10316C00238F0184EFF0AFA0A380018683C7118663
:10317C000604C18F0145A380F186EFF02FF103C740
:10318C00F185854793891186631BF704A38F01840E
:10319C003754004003C50900EFF06FF583570480E6
:1031AC00918BEDFB854513050040EFF06FF28545E3
:1031BC0013050020EFF0CFF1854513050010EFF05B
:1031CC002FF191C4894703470900E30EF7FE83C72B
:1031DC008185A5D703C581853305A04085B70545F5
:1031EC00EFF0AFE8F9BF7D5591BF9307000263E1A3
:1031FC00C710011152C406CE22CC26CA4AC84EC6EC
:10320C0056C25AC083C721862A88138A21867955CB
:10321C00CDEF3284014555CA854A23005A012380DB
:10322C00D186238C0184238F018413891186930703
:10323C00F6FF23005901BA84A38EF1848347090059
:10324C000608AE89B3E7070193F7F70F2300F900DF
:10325C00EFF0CFE383C7F18563935709A38F018404
:10326C00B75A004003450900EFF06FE883D70A8096
:10327C00918BEDFB854513050040EFF06FE585451F
:10328C0013050020EFF0CFE4854513050010EFF097
:10329C002FE40149854A7D5B83470A00639C5701F3
:1032AC00054597D0FF1FE78000550509E38664FFAD
:1032BC00E34499FE83C7E18563E787022286938501
:1032CC00C1984E85EFF0AF8A2285F2406244D24419
:1032DC004249B249224A924A024B05618280054515
:1032EC00EFF0AFD87DB703C4E1851374F40FF9B7D1
:1032FC007D55828082809387418603D70700630BBC
:10330C00A702011106CE2390A7001306F100239506
:10331C00A186854513055030A3070100EF50A12865
:10332C001306000A856503C5C186EF00503FF240C5
:10333C00056182808280411106C622C497F6FF1F68
:10334C00938606F8238BA600794685450145EF4008
:10335C0050501305000A45371384C18603450400F9
:10336C0093050008EF00D064034504002244B240EA
:10337C0005661306062C9305000841016F00303AD0
:10338C009307300B63FAA70217B70100130707E383
:10339C008547BA867546835547006378B500FD1797
:1033AC008A07BE9603C52600828085071107E39421
:1033BC00C7FE13054006828001458280411106C676
:1033CC009386718683C706001387C19A13961700DC
:1033DC0032972310A70085072947B3E7E702138725
:1033EC0061862380F60083470700A54663E5F60057
:1033FC0085072300F7008346070081471387C19A8E
:10340C0001456394F6023355D502420541818D3F47
:10341C0097F7FF1F938747FB98436354A7001375D7
:10342C00F70FB24088C3410182800356070085071D
:10343C0093F7F70F32950907E9B74111654506C6B1
:10344C00AD39E1451305000297E0FF1FE78060905E
:10345C0089451305200297E0FF1FE780808FB2405B
:10346C00814513055002410117E3FF1F6700638E6E
:10347C0001119397050122CC06CE26CA4AC8C187F2
:10348C002E8463DF070003C5C186992B11C17129F6
:10349C002165218DF2406244D2444249056182800B
:1034AC0093F7150091CB17F5FF1F130565F2EF305D
:1034BC00214213451400F9BF93F7250095CB37A68D
:1034CC000E0013060660894503C5C186EF00302542
:1034DC0097E0FF1FE780E08E97F6FF1F938646DE8E
:1034EC00794685450145EF40D036134524005DB73C
:1034FC0093F78500B9C79387418798438946630A38
:10350C00D7009146630CD7021DE7A3880186238858
:10351C0001869384C18603C50400054793050010FA
:10352C0098C3EF00F04803C504001306003293055E
:10353C000020EF00D01E13458400A9BFA38801868C
:10354C00C9BF93F70501D9CB9384C18603C5040089
:10355C0093050020EF00D04503C5040093050040FF
:10356C00EF00104593874187984385466309D7023E
:10357C008D466312D7069386018703C7060003C5E1
:10358C0004009305001005072380E600A38801863C
:10359C00114798C3EF00D0411306003225A0938643
:1035AC00118703C7060003C5040093050010050727
:1035BC002380E60023880186094798C3EF00503F1B
:1035CC001306002803C5040093050010EF00301506
:1035DC0013450401C1B523AA0186DDBF93F705107D
:1035EC00A1CB83A7418709476389E7029146639D75
:1035FC00D70083C70187854611456386D7001545DB
:10360C006383E7001945053BA3880186238801865F
:10361C0023AA018613450410B5BD03C7118785463F
:10362C000545E302D7FE0945E30FF7FC0D45E1BF65
:10363C0093F7052099CF8D471306003C9305004066
:10364C0003C5C18623AAF186EF00700D1345042033
:10365C0091B593F70540A1C3954723AAF186A3889A
:10366C0001862388018697D0FF1FE780E07713053A
:10367C000008A386018697F7FF1F238D07C46539C1
:10368C00130600149305004003C5C186EF003009F2
:10369C001345044001B593F70502DDCF3717004001
:1036AC001307470C1C43184317F6FF1F130606D2CB
:1036BC00A5832D83058B898BD98F0347060097B67D
:1036CC0001009386A6AE2300F6000A075D8F36979D
:1036DC00830507001386D1868307060085C593866C
:1036EC00918603C7060093F7F70F2E976207618741
:1036FC002380E6008D4663DCE60485072300F60094
:10370C00A38401868347060097F6FF1F938646BB6A
:10371C00794685450145238AF600EF409013130541
:10372C00000AD13E9384C18603C504000569930544
:10373C000980EF00F02703C504000966130606F4A0
:10374C0093050980EF00A07D13450402A1B3F55643
:10375C00E35AD7FAFD175DB793F705088DC797F6AF
:10376C00FF1F9386E6B579468545014597F7FF1F00
:10377C00238307B6EF40F00D1165130505E8A53E50
:10378C001345040801BB856493840480B3F795004A
:10379C0091CB1165130505E8B93E334594004205FC
:1037AC004181CDB9856433F59500E30505CE1389C8
:1037BC00A186835509000D45258CEF20902C83554F
:1037CC0009001145EF20F02B85471306F1008545C4
:1037DC0013055030A307F100EF40F15C1315040101
:1037EC00C1B70111170500001305C5C806CE22CCC0
:1037FC0026CAEF00105D1384C18685472300A40000
:10380C002307F1001306E1008D4785451305503061
:10381C00A307F100EF4031591306F100854513055C
:10382C008030EF40515817F6FF1F130666A9F94573
:10383C0013056030EF4031579164938504E80D45D2
:10384C00EF203024938504E81145EF209023F536C2
:10385C0003450400138604E88545D125034504007F
:10386C006244F240D2442166130606BC89450561C8
:10387C007DA54111054506C622C4EFF0AFA3130583
:10388C00800497D0FF1FE78040CE85457D55EFE043
:10389C003FE285457D55EFE09FEB81450565EFE007
:1038AC001FEB89450565EFE07FF405648145130541
:1038BC000480EFE0DFE9894513050480EFE01FF396
:1038CC00814513050040EFE09FE889451305004052
:1038DC00EFE0DFF1B7E700E03707040023A0E710C3
:1038EC004146C1450545EFF0EFAE1305400697D0B4
:1038FC00FF1FE78040F0EFF06FCAEFF0EFD8EF401A
:10390C00717CC53597D0FF1FE780605F23AC05FE47
:10391C001C4191E7010001000CC18280BA8703A70A
:10392C0087FF6DFF23ACB7FE8280411122C426C2F3
:10393C0037C4004006C68324C420232604200F105D
:10394C00000009E9232694201545B24022449244F4
:10395C00410182800347E5FF9307F00F6306F700F0
:10396C00232694201145D5B797E0FF1FE780C06A46
:10397C00014523269420D1BF411126C24AC0B7C4A9
:10398C00004006C622C403A9C42023A604200F109D
:10399C00000009E923A62421B240224492440249A2
:1039AC00410182809565938505D0C98D2A842105B6
:1039BC00C2054205C181418197E0FF1FE780E056B7
:1039CC0001CDFD5723200500231285002303F500AC
:1039DC0023A624212105C9B723A6242101456DBFA7
:1039EC00411126C2B7C7004006C622C483A4C72013
:1039FC0023A607200F100000970700209387873D10
:103A0C00904301440147B28791E711E8A165EF00AB
:103A1C00207A35A083C6E7FF639DA60221C08326CA
:103A2C0084FF631FC402170700202325D73A7D5754
:103A3C00232C04FE230FE4FEF1DBA165952E2285D9
:103A4C00B2402244B7C7004023A6972092444101BC
:103A5C00828011E03E8783A787FF7DB73E84E5BF58
:103A6C00232CD7FEE9B7411126C24AC0B7C4004087
:103A7C0006C622C403A9C42023A604200F100000EC
:103A8C0089E523A62421154515A02A849707002033
:103A9C0083C797342E856375F400894763EE8700DE
:103AAC006935B7C7004023A627210D45B2402244F3
:103ABC00924402494101828083A785FF99E703C79D
:103ACC00E5FF9307F00F6308F7008535B7C7004093
:103ADC0023A627214DBF238F85FE17050020130534
:103AEC00652F2D35A1652285E124014523A62421CE
:103AFC0075BF9707002023AF072C82809707002003
:103B0C00938747329C4399E33E85828003D72700F5
:103B1C006316B70003C70700E308A7FEDC47E5B749
:103B2C00C9C1797122D406D626D24AD04ECE0144D0
:103B3C004147B3D78540858BA5C3120531472295E4
:103B4C003305E502970700209387C73103A90700C7
:103B5C008544B3948400C204C180BE892A9903278A
:103B6C00090011C7032549002EC60297B2453147FB
:103B7C003304E40283A709003E941C4489E7232004
:103B8C00090023220900B2502254A58D02599254E7
:103B9C00F2492E85456182800504E31CE4F88144DA
:103BAC00DDB72E85828041111397050122C406C60C
:103BBC0026C24AC041872E84635E0700153511C1A9
:103BCC00AD33A1673D8C2285B24022449244024918
:103BDC0041018280EDD9AA8701474146B356E440A2
:103BEC00858A8DCE9207BA97B146B387D7029706CE
:103BFC0000209386262703A906008544B394E4008D
:103C0C00C204C1803E99832709000325490082978D
:103C1C002320090023220900258C75B70507E31F13
:103C2C00C7FA8144D5BF411126C2B7C7004006C6AA
:103C3C0022C483A4C72023A607200F1000009707D7
:103C4C0000209387671E9C531384018199C7829728
:103C5C001C403E9523A8A18039A09707002093878C
:103C6C00E71B9C43EDF71C40374703001307D73F76
:103C7C00B387E70237A72600130737ECB240BA9791
:103C8C0023A8F180B7C7004023A697200840224400
:103C9C00924441018280797126D2B7C7004006D682
:103CAC0022D44AD04ECE52CC56CA5AC85EC662C432
:103CBC0083A4C72023A607200F10000005E123A62C
:103CCC0097200945B250225492540259F249624A43
:103CDC00D24A424BB24B224C45618280970700205E
:103CEC009387C7139C43BA8A368AB28B2E8BAA89C8
:103CFC008297970700209387E71698433E890144E3
:103D0C00B146C147330CD40233068701104241EA55
:103D1C00C165938505F0414597E0FF1FE780E020E2
:103D2C0005E197070020938727109C5B81C781458D
:103D3C0011458297B7C7004023A697202D4559B748
:103D4C00970700209387070E984331E797070020C9
:103D5C0023AAA70C23000500832709000547331766
:103D6C00870023260500232475012311E500232257
:103D7C005501E29723A0370123A2670123A4570121
:103D8C0063040A0023008A00B7C7004023A69720CB
:103D9C0001450DBF3E875C47F5FF48C765BF05046D
:103DAC00E312F4F6B7C7004023A69720214519BFAC
:103DBC00B7C7004083A6C72023A607200F1000001A
:103DCC0017070020034757016373E502170600200D
:103DDC00130606051317150008423A9503570500FC
:103DEC00D98D2310B50023A6D7200145828023A6A8
:103DFC00D7200D458280B7C7004083A6C72023A6D5
:103E0C0007200F100000170700200347F7FC63750D
:103E1C00E502170600201306A6001317150008422A
:103E2C0093C5F5FF3A9503570500F98D2310B5009E
:103E3C0023A6D7200145828023A6D7200D4582805A
:103E4C00011126CA37C7004006CE22CC4AC84EC63E
:103E5C0052C48324C720232607200F100000130709
:103E6C0005FF1377F70FFD4763E5E70AB146B30685
:103E7C00D502970700209387E7FE984336971C439B
:103E8C00C9CB135A450005443D893315A4001314BE
:103E9C00050141802E895285A2858D31AA8929CDB3
:103EAC00A2855285893F97070020938727F79C436B
:103EBC0082979707002083D727FC338727032A8410
:103ECC00814613060064B3B7270313050732B335D5
:103EDC00E500BE95EF903128B307850097060020CA
:103EEC00938606F93E87D44263E4A70063E4D700C7
:103EFC003387D74023A4E900B7C7004023A69720F7
:103F0C000145F2406244D2444249B249224A056119
:103F1C008280B7C7004023A697200945DDB7797189
:103F2C0026D24ECEB7C4004006D622D44AD052CCAC
:103F3C0056CA5AC85EC683A9C42023A604200F10F3
:103F4C0000009707002083C737E9637AF5009707CD
:103F5C0000209387A7EC83AB070063970B00B7C7D0
:103F6C00004023A63721A9A0170B0020130B4BF000
:103F7C00832A4B00B74736FE938707C82E8A9705CE
:103F8C00002083D565EFBE9AB387C5022A84328997
:103F9C008146B3B5C50213850732B337F500130656
:103FAC000064BE95EF90311B63F0AA0223A6342166
:103FBC000145B250225492540259F249624AD24AF3
:103FCC00424BB24B45618280829B9705002083D582
:103FDC00A5EAB3872503AA84130600648146B3B50A
:103FEC00250313850732B337F500BE95EF90B11654
:103FFC00B3079500BE8403274B0063E4A70063E47A
:10400C00E700B384E740D2852285CD3C01C904C5C5
:10401C00B7C7004023A63721054561BF936504F05F
:10402C00C205C181414597E0FF1FE78000F019E907
:10403C0097070020938747DF9C5B95D3A28511459A
:10404C00829731BF970700209387C7DD9C439DE380
:10405C009707002023A8A7DC85472326050004C565
:10406C002311450123008500A300F5002322050040
:10407C0045B7BA87D84775FFC8C7F9BF79714ECE17
:10408C00B7C7004006D622D426D24AD052CC56CA44
:10409C005AC85EC662C466C26AC083A9C72023A67A
:1040AC0007200F10000035C141443689B28A2E8A90
:1040BC00AA84B14C170B0020130BCBDA054D130C53
:1040CC000003B30B940303270B005E971C43B9EF5B
:1040DC009375F400B315BD0013554440C2055686C4
:1040EC00C1811375F50F253D31C183270B00DE9778
:1040FC0084C323A247016304090023008900B7C7C6
:10410C00004023A63721014521A023A637210945CC
:10411C00B250225492540259F249624AD24A424B4A
:10412C00B24B224C924C024D456182800504E31A3D
:10413C0084F9B7C7004023A637212145D1BF01110F
:10414C0022CC26CA4AC84EC6B7C7004006CE03A921
:10415C00C7202A84AE89B28423A607200F10000042
:10416C007D3B2285CE85EFF07F992A8405C5970586
:10417C00002083D565D0B387950213060064814671
:10418C00B3B5950213850732B337F500BE95EF90A2
:10419C00817C48C013351400F2406244B7C700401C
:1041AC0023A62721D2444249B2490E0505618280DB
:1041BC00011122CC4AC84EC6B7C7004006CE26CA4B
:1041CC0083A9C7202A892E8423A607200F1000005C
:1041DC00EFF0DF92AA8419C123110500A2854A854C
:1041EC0019399707002083C727BF639B27019707BF
:1041FC00002083D767C25D8C97070020239E87C061
:10420C00B7C7004023A63721014591E01945F2407C
:10421C006244D2444249B24905618280011126CAE6
:10422C004AC8B7C4004006CE22CC4EC603A9C4204F
:10423C0023A604200F1000009307F00263E8A704E4
:10424C00B1473304F502970900209389A9C183A7CC
:10425C000900A2979C439DCB9377F5008545B395B8
:10426C00F500C205C1811181A13783A70900014561
:10427C00A29723A0070023A2070023A62421F24023
:10428C006244D2444249B24905618280B7C70040BA
:10429C0023A627210945E5B7411126C206C622C42B
:1042AC00B7C7004083A4C72023A607200F10000027
:1042BC00EFF0DF8419E90145B2402244B7C7004052
:1042CC0023A6972092444101828097070020938770
:1042DC00E7B49C430045829797070020938747B922
:1042EC006368A402D843B74636FE938606C83305E6
:1042FC00A4403697E371E5FC13070064B335E5027F
:10430C0003D6870081463305E502EF90C1646DB793
:10431C00D8433A94C1BF0111680006CE22CC26CAFC
:10432C00EFC0F009FD57630BF50AB247DDC39707E1
:10433C0000209387E7B3970400209384E4A9944862
:10434C00D8433E846387E60297070020938707AD26
:10435C009C438297B247984863F3E7003E87B307C4
:10436C00A7003E85544063E4E70063E4D70033853F
:10437C00D74017040020130424C91C4C81CF970785
:10438C000020938767CF94433707CDFF7D179C465A
:10439C00F98F9CC611E597070020938767ADC8433A
:1043AC0097070020938747A8DC53829719E51C4C8C
:1043BC008DC3EFE05006EFD0705B1C4C99CB970788
:1043CC000020938767CB9843B70633001C47D58FE3
:1043DC001CC7F2406244D2440561828097040020DD
:1043EC009384849F17040020130484A89448584095
:1043FC0097070020938787A29C436393E6028297DA
:10440C005440B74736FE938707C8B6973387A70043
:10441C003A856364F700E36ED7F43305D74091BF58
:10442C00829794485840B387A6003E8563E4D70032
:10443C00E3E1E7F43385E7402DBF411106C697074A
:10444C00002023A5A7A20295B2409707002023A124
:10445C00A79A014541018280914763E9B7008A051B
:10446C00970700209387079ABE9588C1828097078B
:10447C00002023ABA79E11C5854717070020230EEC
:10448C00F79882804111514681451705002013058C
:10449C00659706C69707002023A607989707002064
:1044AC0023A6079C9707002023AA079697070020AE
:1044BC00238507969707002023A8079A97D0FF1FFC
:1044CC00E780E0FB130680028145170500201305E9
:1044DC00A59097D0FF1FE78080FAEF4061489707BF
:1044EC00002083C7B79513D527008D8B3E958D473C
:1044FC003305F502854539051375F50F970700202F
:10450C00238DA78C99473305F5021305052497E0F5
:10451C00FF1FE78080A1170700202325A79459CD02
:10452C009947170600200346468B3306F602814551
:10453C001306062497D0FF1FE78060F4970700202E
:10454C00938747929C4393870724170700202329BE
:10455C00F78A17070020034747880A07BA971707F7
:10456C000020232FF78AEFF0CFD8A9299707002036
:10457C009387078994439707002083C7F785139780
:10458C002700369717F6FFFF1306C65910C313877B
:10459C0017001377F70F0A07369717F6FFFF130666
:1045AC00C66010C313873700890793F7F70F8A0784
:1045BC0097050020A382E582B69790C3B2404101D3
:1045CC0082809707002083C7378117070020034795
:1045DC00C78063F3E70217070020130767821843AD
:1045EC009386170017F6FF1FA308D67E9396270015
:1045FC00369708C33E8582809307F00FE5BF1C41B8
:10460C006382071441777D8FB70600208947631CAE
:10461C00D7120357450063080712411122C41946EB
:10462C002A849305F00F610506C697D0FF1FE7801B
:10463C0060F705478D476302E5101C4491C7585835
:10464C00994765CF185C75CB1306C003814517F5E8
:10465C00FF1F1305657D97D0FF1FE78040E213060F
:10466C00C003A28517F5FF1F1305057C97D0FF1F0C
:10467C00E78040DA17F7FF1F0357C77B97F7FF1F39
:10468C009387877A19E71307001097F6FF1F239378
:10469C00E67A17F7FF1F0347077A11E7054797F6E6
:1046AC00FF1F238AE67817F7FF1F0357E77811E7F8
:1046BC006D4797F6FF1F2391E67817F7FF1F034707
:1046CC00977711E7154797F6FF1FA386E67617F73E
:1046DC00FF1F0347877611E7054797F6FF1F238EC9
:1046EC00E67417F7FF1F0347577519E703C7F70061
:1046FC0097F6FF1FA383E67417F7FF1F0347077492
:10470C0011E7554797F6FF1F238AE67203476401AA
:10471C0019E71307C00397F6FF1F2382E6729C5715
:10472C0091C7829797F7FF1F239CA76AFD5717071E
:10473C000020A305F79AB9338147B24022443E8545
:10474C004101828089473E85828001114EC697F9CE
:10475C00FF1F9389E97183A7090006CE22CC26CAD4
:10476C004AC852C4829713090064B335250303DA8F
:10477C0089008146528633052503EF90C11D97F7BA
:10478C00FF1F93876765804FAA84014563069402D7
:10479C0033858440636E940003A54900528681469C
:1047AC00B335A9023305A902EF90E11A018D2695C4
:1047BC0097F7FF1F23AE9762F2406244D2444249FE
:1047CC00B249224A0561828097F7FF1F83D7E76AB7
:1047DC0051471D45637CF702794719456378F70209
:1047EC001307200315456373F7021307B004114533
:1047FC00637EF700130740060D456379F700130736
:10480C00600909456374F70013B5B70F8280011175
:10481C0022CC06CE2A842EC6EFF0EFC0B245F24071
:10482C00818D33A5A502229562441375F50F0561A0
:10483C008280011122CC06CE2A842EC6EFF0AFBEA8
:10484C00B245F240818D33A5A50222956244420502
:10485C00418105618280011122CC06CE2A842EC6AC
:10486C00EFF06FBCB245F240818D33B5A5022295B5
:10487C0062440561828097F7FF1F9387E75A985728
:10488C0039CB411122C426C206C6BE84029717F743
:10489C00FF1F0357E7542A8415CBBA876373A7000D
:1048AC00AA87C207C183BA866373E400A286C206D4
:1048BC00C182958F5147635BF700DC5491C382979B
:1048CC00EFE0601E97F7FF1F239C8750B2402244F5
:1048DC00924441018280828097F7FF1F83C7075A59
:1048EC0099C7054582800545F2400561828097F79E
:1048FC00FF1F93876753DC57011106CEAA8581C72A
:10490C002AC68297B245ADCD9C41F1DFDC41E1DF97
:10491C0083D78500E9DB83D7A500F1D7414617F58E
:10492C00FF1F1305E55497D0FF1FE780A0AE97F744
:10493C00FF1F9387E7539C4317F7FF1F2320F74E66
:10494C0097F7FF1F83C7B74F8DE79307805717F56E
:10495C00FF1F035565523305F50237460F0013064A
:10496C00062481468145EF80117F97F7FF1FA388AE
:10497C00A74C17050000130585DDC1340145ADB703
:10498C0097F7FF1F23A8074697D7FF1F938767FF4B
:10499C0017F7FF1F232EF74C7D5797F7FF1F23ABFD
:1049AC00E74CB7873200938727A197F6FF1F23A503
:1049BC00F64C97F7FF1F2383074CB7C7004023A47F
:1049CC00E726B5B7011122CC17F4FF1F1304C44519
:1049DC00084406CE26CA4AC801E90545F24062449D
:1049EC00D2444249056182805C58E5DB185C75D77E
:1049FC007000854582971844B247E300F7FE930593
:104A0C00E00417F5FF1F0355E54297D0FF1FE78021
:104A1C00C05117F7FF1F2321A73E61D117F6FF1FC7
:104A2C00035646419305F00F97D0FF1FE78020A552
:104A3C00814417F9FF1F1309293A97F7FF1F83C702
:104A4C00873F0326090263C1F402328597D0FF1F0A
:104A5C00E780805C014597F7FF1F23AF073897F776
:104A6C00FF1F23AD07389DBF97F5FF1F83D5853CEE
:104A7C00B38795020844185C898185043E9508C269
:104A8C00029765BF011156C297FAFF1F938ACA3964
:104A9C0083A78A0022CC4AC84EC606CE26CA52C468
:104AAC005AC0AA892E8432896386072203A74A0337
:104ABC00630907141307F01F6367A71497F4FF1F0C
:104ACC009384843103AA040263170A0A95659385BB
:104ADC0015E017F5FF1F0355E53597D0FF1FE7804D
:104AEC00C04497F7FF1F23A9A7302A86630B051034
:104AFC0083A74A0303A58A0097F5FF1F83D5853347
:104B0C008981829783A78A0003AA040217F7FF1FE3
:104B1C002326F72E8947639CF908C1476313F40ECB
:104B2C0097F5FF1F83D50531938505FC9147B3C5D8
:104B3C00F5028A05D29503C725009307A005631ECD
:104B4C00F70A83D70500639A370B4A8522869105AD
:104B5C0097D0FF1FE780008C9C50528563934715BC
:104B6C000145F2406244D2444249B249224A924A37
:104B7C00024B05618280D850E38EE7F895659385EA
:104B8C0025E017F5FF1F0355E52A97D0FF1FE78097
:104B9C00C0392A8A3DC52A8683A74A0303A58A0001
:104BAC0097F5FF1F83D5052989818297A5B78D4776
:104BBC00639DF900C1476316F40497F5FF1F83D575
:104BCC006527938545FDF199B5B79147639AF9002F
:104BDC006319340397F5FF1F83D5C525A115E5B7D8
:104BEC0093070010639FF900A14763EC870097F5CA
:104BFC00FF1F83D52524C115F9B79C5052856396A8
:104C0C00470D2945B9BF1D6A568B6371450B130AB5
:104C1C0005E01947334AEA0217F7FF1F03578721AC
:104C2C0097FAFF1F938A4A1B330AEA023E9A83A71C
:104C3C004A026395470183A40A029DE49305E004AC
:104C4C0017F5FF1F0355051F97D0FF1FE780E02DB9
:104C5C00AA8445D983274B0397F5FF1F83D5851D60
:104C6C002A8689815285829791451307A0058981EF
:104C7C0093972500A69783C627006393E60483D6F3
:104C8C000700639C360385058A052286A6954A850E
:104C9C0097C0FF1FE780007883A70A02E38297EC96
:104CAC00268597D0FF1FE78020375DBD21677917D8
:104CBC00E369A7F4330A454185B783C5370045BF7F
:104CCC0083A70A02E38F97F2268597D0FF1FE78010
:104CDC00A03405BF97F7FF1F938707108C5395D10E
:104CEC0091479306A0058983139727002E970346B7
:104CFC002700E318D6F003560700631C360185071E
:104D0C008A072286BE954A8597C0FF1FE780807070
:104D1C0081BD83473700C1BF97F7FF1F9387C7102B
:104D2C00984739C79C5FA9C705476313E504411130
:104D3C0022C417F4FF1F1304240A105006C60DC614
:104D4C00485097F5FF1F83D5E50E8981829708504F
:104D5C0097D0FF1FE780402C97F7FF1F23AE070863
:104D6C0097F7FF1F23AC0708B24022444101828011
:104D7C008280011117F7FF1F1307070B4EC68329FB
:104D8C00870022CC26CA4AC806CE52C456C2AA8470
:104D9C002E843289638B09201C5FBA8A99EB2945D2
:104DAC00F2406244D2444249B249224A924A0561D5
:104DBC0082805C5BEDD79307F01F63EAA70E97F92F
:104DCC00FF1F9389690183A70902B1CB03A58A0050
:104DDC0083A749026395A70689476393F408C147E3
:104DEC00E31FF4FA17F5FF1F0355C504914713058C
:104DFC0005FC3345F5029317250003A5090222860D
:104E0C00CA853E959307A0052301F5002310950054
:104E1C00110597C0FF1FE780E05F014551B793056F
:104E2C00E00417F5FF1F0355E50097D0FF1FE7803F
:104E3C00C00F97F7FF1F23A1A7FC49F98DB783A7D4
:104E4C004A0303A6090297F5FF1F83D5A5FE8981A6
:104E5C00829783A78A0017F7FF1F2321F7FAADBFAC
:104E6C008D47639EF400C147E31BF4F217F5FF1F57
:104E7C00035545FC130545FD9377C5FFBDBF914711
:104E8C00639AF400E31D94F017F5FF1F035585FAA0
:104E9C002115DDB793070010E393F4F0A147E3E08D
:104EAC0087F017F5FF1F0355E5F84115F1B79D671E
:104EBC006379F506930705E01947B3C7E70217F7BF
:104ECC00FF1F035727F717FAFF1F130AEAF0B387E0
:104EDC00E702BE9983270A02A1CF83274A0263996E
:104EEC00370703250A0291461308A0059305F00F16
:104EFC0093D72600139727002A9703462700631F92
:104F0C000607835807000346370063959806B306D7
:104F1C00D64063CF860485078A072286CA853E95CC
:104F2C00CDBD21677917E36CA7E6B307F54041BF08
:104F3C009305E00417F5FF1F0355C5EF97D0FF1F2E
:104F4C00E780A0FE97F7FF1F23A8A7EA59F581BDBC
:104F5C0083A74A0303260A0297F5FF1F83D585ED25
:104F6C0089814E85829797F7FF1F23A937E995BF53
:104F7C002310B70093160601C1829DBFB38586002E
:104F8C0017F6FF1F035606EB9105130606FCE3F814
:104F9C00C5E013063400719A1106B296230107017D
:104FAC0023109700A301D700BDB797F7FF1F938776
:104FBC00A7E29453BE89A9C203A50902914613081E
:104FCC00A0059305F00F93D72600139727002A9777
:104FDC00034627006318060583580700034637006D
:104FEC0063989800B306D640E3D786F22310B70037
:104FFC0093160601C182C1BF8357C70017F5FF1F67
:10500C00034565E39305E0043305F5024205418150
:10501C0097D0FF1FE78060F197F7FF1F23AEA7DC47
:10502C0041FDB5BB17F6FF1F0356C6E097F5FF1FF2
:10503C0083C565E0B385C502338686001106E3E0BF
:10504C00C5D681BF01458280011106CE2EC6EF70F8
:10505C00A07D01C9B245F2400355250005616FB032
:10506C009013F240494505618280A380018A238018
:10507C00018A23A4018823A6018823A8018823AAD6
:10508C00018823A2018823A0018897F7FF1F93872B
:10509C0027E1930640382391D702F1761307400B92
:1050AC00938606B82391E7002392D70211679D4699
:1050BC00130600059305000A1305007D2392E700F3
:1050CC002393D70241478546130810F82395E70030
:1050DC002396E7002399E700239AE700239BE70038
:1050EC00239CE7002394E702239007002393B70047
:1050FC002394B7002397C7002398C700239DA700CC
:10510C00239E0700239F0700239007022395D702B5
:10511C0023960703239707029308F00723980702A7
:10512C002392E7042393E704239FE7042390E706E5
:10513C002391E7062392E706239917031307C01C54
:10514C00239AD702239BD702239C0702239D070295
:10515C00239E0702239F0702239007042391D70461
:10516C0023940704239507042396D7042397C70495
:10517C002398C7042399A704239A0704239B0704A5
:10518C00239C0704239DC704239EC7042393A706CF
:10519C002394070623950706239607062397B7063D
:1051AC002398B70623990706239AE7065147239DB0
:1051BC00E7067D57239B0706239C0706239ED706ED
:1051CC00239F0706239007092391E708828001118A
:1051DC0026CAAA84214522CC06CE2E8432C636C4D9
:1051EC003AC2EFE06FF91DC9A24612473246930747
:1051FC0000FD2300F5009947A30095002301F5005D
:10520C002303D500A303E5002312C500AA8522853C
:10521C006244F240D24405616FE0FF84F240624484
:10522C00D2440561828023A4A188828023A6A18810
:10523C00828023A8A188828023AAA1888280011160
:10524C0022CC4AC806CE26CA2A890144B304890056
:10525C006368B400F2406244D244424905618280E2
:10526C002EC6EFE05F9C93170501C183A183B24565
:10527C002380F4009307140093F7F70F850463F968
:10528C00B700CA9709042380A7001374F40F7DBFDD
:10529C003E847DBFC16717F5FF1F0355C5BEFD17C3
:1052AC006304F502411117F6FF1F034626D39385BD
:1052BC00818906C6EF704035B240FD5717F7FF1FC6
:1052CC002313F7BC41018280828009C9251513750F
:1052DC00F50F1335850E134515008280014582802C
:1052EC0023900500C9C6797122D426D24ECE52CC59
:1052FC005AC806D64AD056CA5EC63684328AAE8999
:10530C002A8B814463F34407B307940083C70700D7
:10531C00138914004209939A070193DA0A0113596D
:10532C00090163840A04CA976341FA04B307240190
:10533C0083CB07005E85513F0DC99387FAFF2390FD
:10534C00F90063906B03130519002295B250225497
:10535C0092540259F249624AD24A424BB24B4561CD
:10536C008280D694C204C18071BF0145C5B7014586
:10537C008280411126C2AE8422C497F7FF1F23AB53
:10538C00C7B097F7FF1F23A5B7B097F7FF1F23AF41
:10539C00A7AE2A8441469305F00F26854AC006C65F
:1053AC00054997C0FF1FE780E01F6310250597F79D
:1053BC00FF1F9387E7AC884BC14551354146930598
:1053CC00F00F228597C0FF1FE780C01D854463182E
:1053DC009502224497F7FF1F938787AAB240924405
:1053EC000249C847C145410199BD414681452685C1
:1053FC0097C0FF1FE780001BE31225FD4DBF414600
:10540C008145228597C0FF1FE780C019E30395FCF7
:10541C00B24022449244024941018280411122C48B
:10542C0026C22E84AA8413060002814517F5FF1F9D
:10543C00130505A506C697C0FF1FE780400497F724
:10544C00FF1FA38097A497F7FF1F238B87B8EFB09C
:10545C008056854719C181474945B240224417F708
:10546C00FF1F230FF7A0924441018280814781CD19
:10547C0019C98547631BF50083C7550093E707FCE3
:10548C00A382F50085473E85828089476317F50026
:10549C0083C7550093F7F703E5B70D478547E3142A
:1054AC00E5FE03C755001377F70313670704A382C0
:1054BC00E500D1BF81478DC105C103C755009306D7
:1054CC00000C85471377070C6308D700930600047C
:1054DC008D476303D70089473E858280411122C4E2
:1054EC00005D06C626C21DC8AA84085009C597D0FF
:1054FC00FF1FE78060B2485009C597D0FF1FE780B7
:10550C00A0B1085409C597D0FF1FE780E0B02285F1
:10551C0097D0FF1FE78040B023AC0402B240224476
:10552C0092444101828009ED97F7FF1F83C767956D
:10553C0017F5FF1F1305459681CB13858187828054
:10554C0017F5FF1F13054595828017F5FF1F0345BF
:10555C004593828097F7FF1F93878792C847828075
:10556C0097F7FF1F9387C791884B828097F7FF1F90
:10557C0093870791DC4B8843828097F7FF1F9387B3
:10558C002790D84B1C4385071CC317F5FF1F0345F9
:10559C00558F9307F00F6305F50091656FE05F8100
:1055AC008280011122CC06CE2E8432C6EF70803858
:1055BC009147B245631FF500938741899C438DC386
:1055CC0003A30700630E030022856244F2400561C9
:1055DC0002839387C1889C4381C703A34700DDB72F
:1055EC00F2406244054505618280011122CC2A8477
:1055FC000355450006CE26CA4AC84EC6EF70A01108
:10560C0035C52A89834405008349C500C13D4A85B7
:10561C00EF70606D03554400EF70002D83C7018A55
:10562C00B1CB6399970483C5118A2685EFF0DFA16E
:10563C0019E12380018A03554400EF70A02F914794
:10564C00631FF5000357440097F7FF1F83D7A78309
:10565C006317F700FD5717F7FF1F2316F782F24069
:10566C006244D2444249B249056182808149930423
:10567C00F00F6DB79307F00FE38FF4FA83466400D5
:10568C0003564400034524004E87A685893665B72A
:10569C0079715EC6AA8B2E8552CC56CA5AC806D6CC
:1056AC0022D426D24AD04ECEAE8A328B368AEF70B6
:1056BC0080067DC1045D2A89E5C09C50614599C373
:1056CC00130540039C5481C7510542054181630574
:1056DC000A00710542054181DC5081C75D05420518
:1056EC004181EFE06FA92A8445C96146814597C085
:1056FC00FF1FE780C0D897E9FF1F83C9697D6394BA
:10570C00090083490900930700FD2300F400A94711
:10571C00A30074012301F400230364018C502312B1
:10572C0054011305840191C908C47146930A4403BA
:10573C0097C0FF1FE78000CE56858C5491C948C492
:10574C005146930A450197C0FF1FE780A0CC5685B0
:10575C00630C0A0008C87146D285930AC50197C02C
:10576C00FF1FE78020CB5685CC5099C548C85D46B5
:10577C0097C0FF1FE78000CAA2854E85EFE0AFAE51
:10578C002254B2509254F249624AD24A424BB24B22
:10579C004A850259456199B3B25022549254025928
:1057AC00F249624AD24A424BB24B456182800111A6
:1057BC004EC6AA892E854AC806CE22CC26CA2E8968
:1057CC00EF60707521C997E4FF1F83C4647099E082
:1057DC00834405001945EFE02F9A2A8405CD8145B5
:1057EC00194697C0FF1FE78080C9930700FD23006F
:1057FC00F400B947A30034012301F400231224015F
:10580C00A2856244F2404249B2492685D2440561E0
:10581C006FE06FA5F2406244D2444249B24905613F
:10582C00828039715ECEAA8B2E8526DA4ED652D462
:10583C0056D25AD006DE22DC4AD8AE84328BB68AD7
:10584C003A8ABE8942C6EF60106D21CD2A89414546
:10585C00EFE08F922A8431C54146814597C0FF1FE6
:10586C00E780E0C117E5FF1F0345856619E1034595
:10587C000900930700FD2300F400BD472301F40049
:10588C00B247A30074012312940023046401A304FF
:10589C00540123054401A30534015CC4A285EFE047
:1058AC008F9CF2506254D2544259B259225A925A95
:1058BC00025BF24B21618280797126D2AA84394530
:1058CC004AD04ECE06D622D42EC6B2893689EFE007
:1058DC00AF8A21C1B2459307000D2310F500B147E3
:1058EC002A842312B5002301F500CE85190519462B
:1058FC0097C0FF1FE78000B223062401A285225423
:10590C00B2500259F24913F5F40F925445616FE00D
:10591C008F95B250225492540259F24945618280BB
:10592C0017E7FF1F0347F7559307F00F630DF706B3
:10593C00411126C2AA84394522C406C64AC0EFE0EA
:10594C00AF832A8439C9930700FD2300F500A30017
:10595C0095002301050097E5FF1F9385E5530D0581
:10596C00194697C0FF1FE780E0AA17E9FF1F13092C
:10597C00295183578900A28517E5FF1F03457550F0
:10598C002315F400834719002306F4002244B24087
:10599C009244024941016FE00F8DB240224492447F
:1059AC00024941018280828001115AC02A8B314503
:1059BC0026CA4EC652C456C206CE22CC4AC8AE84A3
:1059CC00B28A368ABA89EFD03FFB35CD2A84268538
:1059DC00EF60705411C50347C500A1476314F70469
:1059EC0017E9FF1F0349F949930700FD2300F40051
:1059FC009D47A30064012301F40023129400231398
:105A0C0054012314440123153401A2856244F2404D
:105A1C00D244B249224A924A024B4A854249056114
:105A2C006FE06F8417E9FF1F0349995BE31E0BFAC4
:105A3C009387C1929C439C47C5DBCE865286D68504
:105A4C002685829755B7F2406244D2444249B24906
:105A5C00224A924A024B05618280011122CC2A848F
:105A6C00214506CE2EC6EFD03FF121C1B24593079A
:105A7C0000FD2300F500C5472301F50083C7350061
:105A8C00A301F50083D745002312F50083C76500F9
:105A9C002303F50083C77500AA85A303F5002285AF
:105AAC006244F24005616FD01FFCF2406244056114
:105ABC008280397162CC2A8C594526DA4AD84ED666
:105ACC0052D456D25AD05ECE06DE22DCAE8432C61A
